S012000050726F6A6563745541532E7372656352
S113000056C2000075C2000073C2000071C2000035
S11300106FC200006DC200006BC2000069C2000024
S113002067C2000065C2000063C2000061C2000034
S11300305FC200005DC200000C94B1130C94EA0886
S11300400C9417090C9444090C9471090C949E099E
S11300500C94CB090C94F8090C94250A0C94520ABC
S113006047C2000045C2000043C2000041C2000074
S11300703FC200003DC200003BC2000039C2000084
S113008037C2000035C2000033C2000031C2000094
S11300902FC200002DC200002BC200009AC600002F
S11300A0CAC60000FAC600002AC7000021C2000028
S11300B01FC200001DC200001BC200000C94410CB2
S11300C00C946E0C0C949B0C0C94C80C0C94F50CB6
S11300D00C94220D0C944F0D0C947C0D0C94A90DD2
S11300E00C94D60D05C2000003C2000001C200003A
S11300F0FFC10000FDC10000FBC10000F9C1000008
S1130100F7C10000F5C10000F3C10000F1C1000017
S1130110EFC10000EDC10000EBC1000092C500007A
S1130120C2C50000F2C5000022C60000E1C1000003
S1130130DFC100000C947F0A0C94AC0A0C94D90A19
S11301400C94060B0C94330B0C94600B0C948D0BD9
S11301500C94BA0B0C94E70B0C94140CC9C100005A
S1130160C7C10000C5C10000C3C10000C1C1000077
S1130170BFC10000BDC10000BBC10000B9C1000087
S1130180B7C10000B5C10000B3C10000B1C1000097
S1130190AFC10000ADC10000ABC10000A9C10000A7
S11301A0A7C10000A5C10000A3C10000A1C10000B7
S11301B00C94030E0C94300E0C945D0E0C948A0E69
S11301C00C94B70E0C94E40E93C1000091C100008E
S11301D08FC100008DC100008BC1000089C10000E7
S11301E087C1000085C1000083C1000081C10000F7
S11301F07FC100007DC100007BC10000D11CD11C67
S1130200D11CFE1C061D141DD11CD11CFE1C061D78
S11302106364696E6F70737578585B00000000004A
S1130220000000202020202000205050500000001A
S1130230005050F850F850502078A07028F020C09A
S1130240C810204098186090A040A8906860204092
S113025000000000102040404020104020101010EA
S11302602040005020F8205000002020F8202000DA
S113027000000000602040000000F80000000000C2
S1130280000000606000081020408000708898A87A
S1130290C8887020602020202070708808102040BA
S11302A0F8F810201008887010305090F81010F8EA
S11302B080F008088870304080F0888870F8081052
S11302C020404040708888708888707088887808DA
S11302D010600060600060600000606000602040AA
S11302E0081020402010080000F800F800008040AA
S11302F02010204080708808102000207088086832
S1130300A8A87070888888F88888F08888F0888819
S1130310F070888080808870E09088888890E0F809
S11303208080F08080F8F88080E080808070888011
S113033080988870888888F8888888702020202091
S11303402070381010101090608890A0C0A0908881
S1130350808080808080F888D8A888888888888869
S1130360C8A898888870888888888870F08888F0F9
S113037080808070888888A89068F08888F0A09031
S113038088788080700808F0F820202020202088B9
S11303908888888888708888888888502088888891
S11303A0A8A8D88888885020508888888850202019
S11303B02020F80810204080F83820202020203801
S11303C000804020100800E02020202020E0205061
S11303D08800000000000000000000F84020100029
S11303E0000000000070087888788080B0C8888891
S11303F0F000007080808870080868988888780009
S1130400007088F88070304840E040404000007838
S1130410887808308080B0C88888882000602020D0
S113042020701000301010906040404850605048D8
S1130430602020202020700000D0A8A88888000018
S1130440B0C8888888000070888888700000F088A8
S1130450F08080000068987808080000B0C88080A8
S113046080000070807008F04040E0404048300058
S11304700088888898680000888888502000008850
S113048088A8A850000088502050880000888878E8
S113049008700000F8102040F810202040202010A0
S11304A02020202020202040202010202040112423
S11304B01FBECFEFCDBFDFE5DEBF00E00CBF11E212
S11304C0A0E0B0E2E0EFF6E500E00BBF02C0079069
S11304D00D92A032B107D9F724E2A0E2B1E201C043
S11304E01D92A73CB207E1F70E9430230C94762BAF
S11304F087CD04C0615071098109910961157105A5
S113050081059105B9F70895BF92CF92DF92EF92DA
S1130510FF920F931F93CF93DF931F92CDB7DEB754
S113052000E016E06894FF24F3F8F801F68264E032
S113053070E080E090E0DDDFF801F58264E070E0D7
S113054080E090E0D6DF0F2EFBE2BF2EF02DB982C3
S113055080EA99E00E943E1DC12CD12C760100E472
S113056012E42FE030E043E0BE016F5F7F4F80EA8A
S113057099E00E946D1D00E616E0FF24F394F80153
S1130580F682B982BE016F5F7F4F80EA99E00E94D4
S1130590881DF801F682E0EAF9E0818185FFFDCF4C
S11305A080EA8093A009E0EAF9E0818186FFFDCF2B
S11305B0E0EAF9E080E481838081BE016F5F7F4FD0
S11305C080EA99E00E949E1D8BE28983BE016F5FE1
S11305D07F4F80EA99E00E94881D81E0809366063F
S11305E0E0EAF9E0818185FFFDCF86EA8093A009E6
S11305F0E0EAF9E0818186FFFDCFE0EAF9E080E4FA
S113060081838081BE016F5F7F4F80EA99E00E9401
S11306109E1D8BE28983BE016F5F7F4F80EA99E064
S11306200E94881D81E080936606E0EAF9E08181FA
S113063085FFFDCF88EC8093A009E0EAF9E0818191
S113064086FFFDCFE0EAF9E080E481838081BE018A
S11306506F5F7F4F80EA99E00E949E1D8BE2898341
S1130660BE016F5F7F4F80EA99E00E94881D81E0A0
S113067080936606E0EAF9E0818185FFFDCF82EA96
S11306808093A009E0EAF9E0818186FFFDCFE0EAEA
S1130690F9E080E481838081BE016F5F7F4F80EA4F
S11306A099E00E949E1D8BE28983BE016F5F7F4F9C
S11306B080EA99E00E94881D81E080936606E0EA62
S11306C0F9E0818185FFFDCF8FE28093A009E0EA04
S11306D0F9E0818186FFFDCFE0EAF9E080E48183DF
S11306E08081BE016F5F7F4F80EA99E00E949E1D6A
S11306F08BE28983BE016F5F7F4F80EA99E00E949D
S1130700881D81E080936606E0EAF9E0818185FF37
S1130710FDCF88EF8093A009E0EAF9E0818186FFAC
S1130720FDCFE0EAF9E080E481838081BE016F5F60
S11307307F4F80EA99E00E949E1D8BE28983BE016F
S11307406F5F7F4F80EA99E00E94881D81E080936B
S11307506606E0EAF9E0818185FFFDCF1092A009E9
S1130760E0EAF9E0818186FFFDCFE0EAF9E080E488
S113077081838081BE016F5F7F4F80EA99E00E9490
S11307809E1D8BE28983BE016F5F7F4F80EA99E0F3
S11307900E94881D81E080936606E0EAF9E0818189
S11307A085FFFDCF81E28093A009E0EAF9E0818131
S11307B086FFFDCFE0EAF9E080E481838081BE0119
S11307C06F5F7F4F80EA99E00E949E1D8BE28983D0
S11307D0BE016F5F7F4F80EA99E00E94881D81E02F
S11307E080936606E0EAF9E0818185FFFDCF81E828
S11307F08093A009E0EAF9E0818186FFFDCFE0EA79
S1130800F9E080E481838081BE016F5F7F4F80EADD
S113081099E00E949E1D8BE28983BE016F5F7F4F2A
S113082080EA99E00E94881D81E080936606E0EAF0
S1130830F9E0818185FFFDCF81E28093A009E0EAA0
S1130840F9E0818186FFFDCFE0EAF9E080E481836D
S11308508081BE016F5F7F4F80EA99E00E949E1DF8
S11308608BE28983BE016F5F7F4F80EA99E00E942B
S1130870881D81E080936606E0EAF9E0818185FFC6
S1130880FDCF8FEA8093A009E0EAF9E0818186FF39
S1130890FDCFE0EAF9E080E481838081BE016F5FEF
S11308A07F4F80EA99E00E949E1D0F90DF91CF91C7
S11308B01F910F91FF90EF90DF90CF90BF9008951C
S11308C0FF920F931F93CF93DF931F92CDB7DEB7A1
S11308D0082FF62E142F0E94B91D0F70006B8BE2A7
S11308E08983BE016F5F7F4F80EA99E00E94881D73
S11308F081E080936606E0EAF9E0918195FFFDCFFF
S11309000093A009E0EAF9E0818186FFFDCFE0EAE7
S1130910F9E080E481838081BE016F5F7F4F80EACC
S113092099E00E949E1D0F2D0F7702950F700061B4
S11309308BE28983BE016F5F7F4F80EA99E00E945A
S1130940881D81E080936606E0EAF9E0818185FFF5
S1130950FDCF0093A009E0EAF9E0818186FFFDCF95
S1130960E0EAF9E080E481838081BE016F5F7F4F1C
S113097080EA99E00E949E1D0F2D0F708BE28983FF
S1130980BE016F5F7F4F80EA99E00E94881D81E07D
S113099080936606E0EAF9E0818185FFFDCF00934C
S11309A0A009E0EAF9E0818186FFFDCFE0EAF9E001
S11309B080E481838081BE016F5F7F4F80EA99E08C
S11309C00E949E1D8BE28983BE016F5F7F4F80EA88
S11309D099E00E94881D81E080936506E0EAF9E0D1
S11309E0818185FFFDCF1093A009E0EAF9E08181C0
S11309F086FFFDCFE0EAF9E080E48183808181E035
S1130A0080936606BE016F5F7F4F80EA99E00E9483
S1130A109E1D0F90DF91CF911F910F91FF9008952C
S1130A200F931F93CF93DF931F92CDB7DEB780E26E
S1130A3091E20E94B41D68DD8BE28983BE016F5F81
S1130A407F4F80EA99E00E94881D81E080936606CA
S1130A50E0EAF9E0818185FFFDCF80E48093A0097D
S1130A60E0EAF9E0818186FFFDCFE0EAF9E080E485
S1130A7081838081BE016F5F7F4F80EA99E00E948D
S1130A809E1D00E00AC040E0612F802F19DF1F5F28
S1130A901038C9F70F5F043011F010E0F4CF0F9055
S1130AA0DF91CF911F910F910895FF920F931F93A0
S1130AB0CF93DF93882354F1603240F5D42FC82FAD
S1130AC0F62EF694F694F69470E088E0F89E601999
S1130AD07109112481E090E08C0102C0000F111F04
S1130AE06A95E2F76C2F8F2D0E94C71DD13021F03B
S1130AF028F0D23031F006C0802B04C0009580234A
S1130B0001C08027482F6C2F8F2DDADEDF91CF9123
S1130B101F910F91FF9008950C94C71D089581159E
S1130B2022E0920769F48091212391E0980F909339
S1130B302123811114C062E081E00C94671E0895A2
S1130B408034924061F48091202391E0980F909337
S1130B502023811104C062E082E00C94671E089592
S1130B60811522E0920761F48091212381508093C2
S1130B702123811113C062E081E00C947D1E08954D
S1130B808034924059F48091202381508093202313
S1130B90811104C062E082E00C947D1E0895EF92FE
S1130BA0FF921F93CF93DF931F921F92CDB7DEB7AF
S1130BB07C018FB78983F8941981C701B0DFF701ED
S1130BC08081816080831FBF8091B8248F3F09F4A6
S1130BD0FFCF8FB78A83F8949A81E7EBF4E281819F
S1130BE08F5F81839FBF0F900F90DF91CF911F91F3
S1130BF0FF90EF9008951F93CF93DF931F921F925E
S1130C00CDB7DEB72FB72983F8941981FC01208171
S1130C102E7F2083A5DF1FBF8091B824811101C0DE
S1130C20FFCF8FB78A83F8949A81E7EBF4E281814E
S1130C30815081839FBF0F900F90DF91CF911F91BF
S1130C4008951F920F920FB60F9211240BB60F92B4
S1130C502F933F934F935F936F937F938F939F93C0
S1130C60AF93BF93EF93FF934091240250912502D9
S1130C70E091BF24F091C02461E080E092E01995F6
S1130C80FF91EF91BF91AF919F918F917F916F9160
S1130C905F914F913F912F910F900BBE0F900FBE1C
S1130CA00F901F9018951F920F920FB60F92112458
S1130CB00BB60F922F933F934F935F936F937F9352
S1130CC08F939F93AF93BF93EF93FF9340912C0225
S1130CD050912D02E091BF24F091C02462E080E0A5
S1130CE092E01995FF91EF91BF91AF919F918F91F0
S1130CF07F916F915F914F913F912F910F900BBE18
S1130D000F900FBE0F901F9018951F920F920FB661
S1130D100F9211240BB60F922F933F934F935F932F
S1130D206F937F938F939F93AF93BF93EF93FF93AF
S1130D304091340250913502E091BF24F091C024D7
S1130D4064E080E092E01995FF91EF91BF91AF913B
S1130D509F918F917F916F915F914F913F912F91CF
S1130D600F900BBE0F900FBE0F901F9018951F92FF
S1130D700F920FB60F9211240BB60F922F933F933D
S1130D804F935F936F937F938F939F93AF93BF938F
S1130D90EF93FF9340913C0250913D02E091BF24B8
S1130DA0F091C02468E080E092E01995FF91EF9102
S1130DB0BF91AF919F918F917F916F915F914F916F
S1130DC03F912F910F900BBE0F900FBE0F901F906D
S1130DD018951F920F920FB60F9211240BB60F9213
S1130DE02F933F934F935F936F937F938F939F932F
S1130DF0AF93BF93EF93FF934091640250916502C8
S1130E00E091BD24F091BE2461E080E492E0199564
S1130E10FF91EF91BF91AF919F918F917F916F91CE
S1130E205F914F913F912F910F900BBE0F900FBE8A
S1130E300F901F9018951F920F920FB60F921124C6
S1130E400BB60F922F933F934F935F936F937F93C0
S1130E508F939F93AF93BF93EF93FF9340916C0253
S1130E6050916D02E091BD24F091BE2462E080E4D3
S1130E7092E01995FF91EF91BF91AF919F918F915E
S1130E807F916F915F914F913F912F910F900BBE86
S1130E900F900FBE0F901F9018951F920F920FB6D0
S1130EA00F9211240BB60F922F933F934F935F939E
S1130EB06F937F938F939F93AF93BF93EF93FF931E
S1130EC04091740250917502E091BD24F091BE24CA
S1130ED064E080E492E01995FF91EF91BF91AF91A6
S1130EE09F918F917F916F915F914F913F912F913E
S1130EF00F900BBE0F900FBE0F901F9018951F926E
S1130F000F920FB60F9211240BB60F922F933F93AB
S1130F104F935F936F937F938F939F93AF93BF93FD
S1130F20EF93FF9340917C0250917D02E091BD24A8
S1130F30F091BE2468E080E492E01995FF91EF916E
S1130F40BF91AF919F918F917F916F915F914F91DD
S1130F503F912F910F900BBE0F900FBE0F901F90DB
S1130F601895BF92CF92DF92EF92FF920F931F9347
S1130F70CF93DF931F92CDB7DEB78C017B01811530
S1130F8022E0920781F461E270E082E00E94921E06
S1130F90C82ED12C60E270E082E00E94921EDC2C0C
S1130FA0CC24C82A12C080349240D1F565E270E0A6
S1130FB082E00E94921EC82ED12C64E270E082E08E
S1130FC00E94921EDC2CCC24C82A8FB78983F89403
S1130FD0B980C801A4DDF801808192E09083C486C1
S1130FE0D586F70125813681F801208F318FF701ED
S1130FF09281F8019283F7019481F8019483F701B7
S11310009381F8019383F7019181F80191838170B1
S1131010F7019081892BF8018083C801A1DDBFBE4F
S11310200F90DF91CF911F910F91FF90EF90DF9080
S1131030CF90BF900895DF92EF92FF920F931F938A
S1131040CF93DF931F92CDB7DEB78C017B018FB7AF
S11310508983F894D980C80162DDF8018081807C9D
S1131060F7018083F801808D918DF7018583968344
S1131070F8018281F7018283F8018481F701848376
S1131080F8018381F7018383F8018181F70181836A
S1131090C80166DDDFBE0F90DF91CF911F910F91E4
S11310A0FF90EF90DF900895AF92BF92CF92DF92BE
S11310B0EF92FF920F931F93CF93DF931F92CDB7BD
S11310C0DEB76C01B62E7A01862F837029F4962F31
S11310D09695969582E002C0962F80E090FF8F5FF0
S11310E08601005E1F4F98E0899F000D111D112499
S11310F08FB78983F894A980C60111DDF701808137
S1131100F8018083F7018281F8018283F7018181EC
S1131110F8018183B0FE04C0F7018381F80186835E
S1131120C6011EDDAFBE0F90DF91CF911F910F91CD
S1131130FF90EF90DF90CF90BF90AF900895AF9263
S1131140BF92CF92DF92EF92FF920F931F93CF93B0
S1131150DF931F92CDB7DEB76C01B62E7A01862FCE
S1131160837029F4962F9695969582E002C0962F67
S113117080E090FF8F5F8601005E1F4F98E0899F9B
S1131180000D111D11248FB78983F894A980C6011D
S1131190C6DCF8018081F7018083F8018281F701C0
S11311A08283F8018181F7018183B0FE04C0F801D4
S11311B08681F7018383C601D3DCAFBE0F90DF9134
S11311C0CF911F910F91FF90EF90DF90CF90BF9040
S11311D0AF9008951F920F920FB60F9211240BB681
S11311E00F922F933F934F935F936F937F938F93BC
S11311F09F93AF93BF93EF93FF93E0916623F09196
S11312006723309709F01995FF91EF91BF91AF9142
S11312109F918F917F916F915F914F913F912F910A
S11312200F900BBE0F900FBE0F901F9018951F923A
S11312300F920FB60F9211240BB60F922F933F9378
S11312404F935F936F937F938F939F93AF93BF93CA
S1131250EF93FF93E0916423F0916523309709F0B5
S11312601995FF91EF91BF91AF919F918F917F91CC
S11312706F915F914F913F912F910F900BBE0F9003
S11312800FBE0F901F9018951F920F920FB60F92DA
S113129011240BB60F922F933F934F935F936F9349
S11312A07F938F939F93AF93BF93EF93FF93E091BB
S11312B06223F0916323309709F01995FF91EF9120
S11312C0BF91AF919F918F917F916F915F914F915A
S11312D03F912F910F900BBE0F900FBE0F901F9058
S11312E018951F920F920FB60F9211240BB60F92FE
S11312F02F933F934F935F936F937F938F939F931A
S1131300AF93BF93EF93FF93E0916023F091612338
S1131310309709F01995FF91EF91BF91AF919F918B
S11313208F917F916F915F914F913F912F910F908A
S11313300BBE0F900FBE0F901F9018951F920F9227
S11313400FB60F9211240BB60F922F933F934F9326
S11313505F936F937F938F939F93AF93BF93EF9319
S1131360FF93E0915E23F0915F23309709F0199584
S1131370FF91EF91BF91AF919F918F917F916F9169
S11313805F914F913F912F910F900BBE0F900FBE25
S11313900F901F9018951F920F920FB60F92112461
S11313A00BB60F922F933F934F935F936F937F935B
S11313B08F939F93AF93BF93EF93FF93E0915C233D
S11313C0F0915D23309709F01995FF91EF91BF914A
S11313D0AF919F918F917F916F915F914F913F91C9
S11313E02F910F900BBE0F900FBE0F901F9018956A
S11313F01F920F920FB60F9211240BB60F922F93D8
S11314003F934F935F936F937F938F939F93AF9388
S1131410BF93EF93FF93E0915A23F0915B233097AE
S113142009F01995FF91EF91BF91AF919F918F9121
S11314307F916F915F914F913F912F910F900BBED0
S11314400F900FBE0F901F9018951F920F920FB61A
S11314500F9211240BB60F922F933F934F935F93E8
S11314606F937F938F939F93AF93BF93EF93FF9368
S1131470E0915823F0915923309709F01995FF9181
S1131480EF91BF91AF919F918F917F916F915F91F8
S11314904F913F912F910F900BBE0F900FBE0F9065
S11314A01F9018951F920F920FB60F9211240BB62E
S11314B00F922F933F934F935F936F937F938F93E9
S11314C09F93AF93BF93EF93FF93E0915623F091D3
S11314D05723309709F01995FF91EF91BF91AF9180
S11314E09F918F917F916F915F914F913F912F9138
S11314F00F900BBE0F900FBE0F901F9018951F9268
S11315000F920FB60F9211240BB60F922F933F93A5
S11315104F935F936F937F938F939F93AF93BF93F7
S1131520EF93FF93E0915423F0915523309709F002
S11315301995FF91EF91BF91AF919F918F917F91F9
S11315406F915F914F913F912F910F900BBE0F9030
S11315500FBE0F901F9018951F920F920FB60F9207
S113156011240BB60F922F933F934F935F936F9376
S11315707F938F939F93AF93BF93EF93FF93E091E8
S11315805223F0915323309709F01995FF91EF916D
S1131590BF91AF919F918F917F916F915F914F9187
S11315A03F912F910F900BBE0F900FBE0F901F9085
S11315B018951F920F920FB60F9211240BB60F922B
S11315C02F933F934F935F936F937F938F939F9347
S11315D0AF93BF93EF93FF93E0915023F091512386
S11315E0309709F01995FF91EF91BF91AF919F91B9
S11315F08F917F916F915F914F913F912F910F90B8
S11316000BBE0F900FBE0F901F9018951F920F9254
S11316100FB60F9211240BB60F922F933F934F9353
S11316205F936F937F938F939F93AF93BF93EF9346
S1131630FF93E0914E23F0914F23309709F01995D1
S1131640FF91EF91BF91AF919F918F917F916F9196
S11316505F914F913F912F910F900BBE0F900FBE52
S11316600F901F9018951F920F920FB60F9211248E
S11316700BB60F922F933F934F935F936F937F9388
S11316808F939F93AF93BF93EF93FF93E0914C237A
S1131690F0914D23309709F01995FF91EF91BF9187
S11316A0AF919F918F917F916F915F914F913F91F6
S11316B02F910F900BBE0F900FBE0F901F90189597
S11316C01F920F920FB60F9211240BB60F922F9305
S11316D03F934F935F936F937F938F939F93AF93B6
S11316E0BF93EF93FF93E0914A23F0914B233097FC
S11316F009F01995FF91EF91BF91AF919F918F914F
S11317007F916F915F914F913F912F910F900BBEFD
S11317100F900FBE0F901F9018951F920F920FB647
S11317200F9211240BB60F922F933F934F935F9315
S11317306F937F938F939F93AF93BF93EF93FF9395
S1131740E0914823F0914923309709F01995FF91CE
S1131750EF91BF91AF919F918F917F916F915F9125
S11317604F913F912F910F900BBE0F900FBE0F9092
S11317701F9018951F920F920FB60F9211240BB65B
S11317800F922F933F934F935F936F937F938F9316
S11317909F93AF93BF93EF93FF93E0914623F09110
S11317A04723309709F01995FF91EF91BF91AF91BD
S11317B09F918F917F916F915F914F913F912F9165
S11317C00F900BBE0F900FBE0F901F9018951F9295
S11317D00F920FB60F9211240BB60F922F933F93D3
S11317E04F935F936F937F938F939F93AF93BF9325
S11317F0EF93FF93E0914423F0914523309709F050
S11318001995FF91EF91BF91AF919F918F917F9126
S11318106F915F914F913F912F910F900BBE0F905D
S11318200FBE0F901F9018951F920F920FB60F9234
S113183011240BB60F922F933F934F935F936F93A3
S11318407F938F939F93AF93BF93EF93FF93E09115
S11318504223F0914323309709F01995FF91EF91BA
S1131860BF91AF919F918F917F916F915F914F91B4
S11318703F912F910F900BBE0F900FBE0F901F90B2
S113188018951F920F920FB60F9211240BB60F9258
S11318902F933F934F935F936F937F938F939F9374
S11318A0AF93BF93EF93FF93E0914023F0914123D3
S11318B0309709F01995FF91EF91BF91AF919F91E6
S11318C08F917F916F915F914F913F912F910F90E5
S11318D00BBE0F900FBE0F901F9018951F920F9282
S11318E00FB60F9211240BB60F922F933F934F9381
S11318F05F936F937F938F939F93AF93BF93EF9374
S1131900FF93E0913E23F0913F23309709F019951E
S1131910FF91EF91BF91AF919F918F917F916F91C3
S11319205F914F913F912F910F900BBE0F900FBE7F
S11319300F901F9018951F920F920FB60F921124BB
S11319400BB60F922F933F934F935F936F937F93B5
S11319508F939F93AF93BF93EF93FF93E0913C23B7
S1131960F0913D23309709F01995FF91EF91BF91C4
S1131970AF919F918F917F916F915F914F913F9123
S11319802F910F900BBE0F900FBE0F901F901895C4
S11319901F920F920FB60F9211240BB60F922F9332
S11319A03F934F935F936F937F938F939F93AF93E3
S11319B0BF93EF93FF93E0913A23F0913B23309749
S11319C009F01995FF91EF91BF91AF919F918F917C
S11319D07F916F915F914F913F912F910F900BBE2B
S11319E00F900FBE0F901F9018951F920F920FB675
S11319F00F9211240BB60F922F933F934F935F9343
S1131A006F937F938F939F93AF93BF93EF93FF93C2
S1131A10E0913823F0913923309709F01995FF911B
S1131A20EF91BF91AF919F918F917F916F915F9152
S1131A304F913F912F910F900BBE0F900FBE0F90BF
S1131A401F9018951F920F920FB60F9211240BB688
S1131A500F922F933F934F935F936F937F938F9343
S1131A609F93AF93BF93EF93FF93E0913623F0914D
S1131A703723309709F01995FF91EF91BF91AF91FA
S1131A809F918F917F916F915F914F913F912F9192
S1131A900F900BBE0F900FBE0F901F9018951F92C2
S1131AA00F920FB60F9211240BB60F922F933F9300
S1131AB04F935F936F937F938F939F93AF93BF9352
S1131AC0EF93FF93E0913423F0913523309709F09D
S1131AD01995FF91EF91BF91AF919F918F917F9154
S1131AE06F915F914F913F912F910F900BBE0F908B
S1131AF00FBE0F901F9018951F920F920FB60F9262
S1131B0011240BB60F922F933F934F935F936F93D0
S1131B107F938F939F93AF93BF93EF93FF93E09142
S1131B203223F0913323309709F01995FF91EF9107
S1131B30BF91AF919F918F917F916F915F914F91E1
S1131B403F912F910F900BBE0F900FBE0F901F90DF
S1131B5018951F920F920FB60F9211240BB60F9285
S1131B602F933F934F935F936F937F938F939F93A1
S1131B70AF93BF93EF93FF93E0913023F091312320
S1131B80309709F01995FF91EF91BF91AF919F9113
S1131B908F917F916F915F914F913F912F910F9012
S1131BA00BBE0F900FBE0F901F9018951F920F92AF
S1131BB00FB60F9211240BB60F922F933F934F93AE
S1131BC05F936F937F938F939F93AF93BF93EF93A1
S1131BD0FF93E0912E23F0912F23309709F019956C
S1131BE0FF91EF91BF91AF919F918F917F916F91F1
S1131BF05F914F913F912F910F900BBE0F900FBEAD
S1131C000F901F9018951F920F920FB60F921124E8
S1131C100BB60F922F933F934F935F936F937F93E2
S1131C208F939F93AF93BF93EF93FF93E0912C23F4
S1131C30F0912D23309709F01995FF91EF91BF9101
S1131C40AF919F918F917F916F915F914F913F9150
S1131C502F910F900BBE0F900FBE0F901F901895F1
S1131C601F920F920FB60F9211240BB60F922F935F
S1131C703F934F935F936F937F938F939F93AF9310
S1131C80BF93EF93FF93E0912A23F0912B23309796
S1131C9009F01995FF91EF91BF91AF919F918F91A9
S1131CA07F916F915F914F913F912F910F900BBE58
S1131CB00F900FBE0F901F9018951F920F920FB6A2
S1131CC00F9211240BB60F922F933F934F935F9370
S1131CD06F937F938F939F93AF93BF93EF93FF93F0
S1131CE0E0912823F0912923309709F01995FF9169
S1131CF0EF91BF91AF919F918F917F916F915F9180
S1131D004F913F912F910F900BBE0F900FBE0F90EC
S1131D101F9018951F920F920FB60F9211240BB6B5
S1131D200F922F933F934F935F936F937F938F9370
S1131D309F93AF93BF93EF93FF93E0912623F0918A
S1131D402723309709F01995FF91EF91BF91AF9137
S1131D509F918F917F916F915F914F913F912F91BF
S1131D600F900BBE0F900FBE0F901F9018951F92EF
S1131D700F920FB60F9211240BB60F922F933F932D
S1131D804F935F936F937F938F939F93AF93BF937F
S1131D90EF93FF93E0912423F0912523309709F0EA
S1131DA01995FF91EF91BF91AF919F918F917F9181
S1131DB06F915F914F913F912F910F900BBE0F90B8
S1131DC00FBE0F901F9018951F920F920FB60F928F
S1131DD011240BB60F922F933F934F935F936F93FE
S1131DE07F938F939F93AF93BF93EF93FF93E09170
S1131DF02223F0912323309709F01995FF91EF9155
S1131E00BF91AF919F918F917F916F915F914F910E
S1131E103F912F910F900BBE0F900FBE0F901F900C
S1131E2018951F93CF93DF931F921F92CDB7DEB700
S1131E302FB72A83F8941A81282F392F211588E087
S1131E40380749F461E083E00E94671E64E083E0A0
S1131E500E94671E4FC0203488E0380749F462E0CE
S1131E6083E00E94671E64E083E00E94671E42C014
S1131E70211589E0380749F461E084E00E94671E77
S1131E8064E084E00E94671E35C0203489E038078E
S1131E9049F462E084E00E94671E64E084E00E94EA
S1131EA0671E28C021158AE0380749F461E085E0FF
S1131EB00E94671E64E085E00E94671E1BC02034F8
S1131EC08AE0380749F462E085E00E94671E64E016
S1131ED085E00E94671E0EC021153B4049F461E075
S1131EE086E00E94671E64E086E00E94671E02C0CE
S1131EF01FBF10C08091B8248F3F09F4FFCF8FB764
S1131F008983F8949981E7EBF4E281818F5F81837F
S1131F109FBF1FBF0F900F90DF91CF911F91089526
S1131F20811528E09207A1F1803428E0920729F472
S1131F3060935C2370935D230895811529E09207D3
S1131F4029F460935423709355230895803429E031
S1131F50920729F4609348237093492308958115C7
S1131F602AE0920729F46093402370934123089553
S1131F7080342AE0920729F4609334237093352344
S1131F80089581159B4021F460932C2370932D2395
S1131F900895FC01918195FFFDCF608380E090E07E
S1131FA00895FC0124E630E003C02150310929F0F2
S1131FB091819923D4F7808108958FEF0895CF926A
S1131FC0DF92EF92FF920F931F93CF93DF93EC0175
S1131FD0D901C801B695A7959795879548175907CC
S1131FE06A077B0778F46A017B01CC0CDD1CEE1CCC
S1131FF0FF1CC901B801A70196010E94E0232150EA
S1132000310902C020E030E0832F8F708F832E834C
S1132010DF91CF911F910F91FF90EF90DF90CF90C0
S11320200895DF92EF92FF920F931F93CF93DF9364
S11320301F92CDB7DEB77C018B01009709F4CFC1A5
S1132040803C910529F460E180E00E94671EC7C1CD
S113205080E8E81681E0F80629F462E080E00E9456
S1132060671EBDC1E114E1E0FE0629F461E080E0F1
S11320700E94671EB4C1F0E8EF16F3E0FF0629F4EE
S113208061E081E00E94671EAAC130E9E31633E0F3
S1132090F30629F461E082E00E94671EA0C1E11406
S11320A082E0F80629F462E081E00E94671E97C18D
S11320B0E0E4EE16E2E0FE0629F462E082E00E942B
S11320C0671E8DC1F0E2EF16F3E0FF0629F464E029
S11320D082E00E94671E83C1E11438E0F30629F40C
S11320E061E083E00E94671E7AC1E11489E0F8068A
S11320F029F461E084E00E94671E71C1E114EAE002
S1132100FE0629F461E085E00E94671E68C1E114BF
S1132110FBE0FF0629F461E086E00E94671E5FC1D0
S113212030E4E31638E0F30629F462E083E00E9429
S1132130671E55C180E4E81689E0F80629F462E0D8
S113214084E00E94671E4BC1E0E4EE16EAE0FE065E
S113215029F462E085E00E94671E41C1F0E9EF16B0
S1132160F8E0FF0629F464E083E00E94671E37C1AB
S113217030E9E31639E0F30629F464E084E00E94D0
S1132180671E2DC180E9E8168AE0F80629F464E0A8
S113219085E00E94671E23C1E0E9EE16EBE0FE062F
S11321A029F464E086E00E94671E19C1F0ECEF1682
S11321B0F8E0FF0629F468E083E00E94671E0FC17F
S11321C030ECE31639E0F30629F468E084E00E9479
S11321D0671E05C180EAE81688E0F80669F460E144
S11321E083E00E94671EE0EAF8E084818F7E8483A6
S11321F0F8012481225053C0F0EAEF16F9E0FF06FB
S113220029F460E184E00E94671EE9C030EAE31625
S11322103AE0F30629F460E185E00E94671EDFC01E
S113222080EAE8168BE0F80629F460E186E00E9473
S1132230671ED5C0E0EBEE16E8E0FE0629F460E286
S113224083E00E94671ECBC0F0EBEF16F9E0FF06B7
S113225029F460E284E00E94671EC1C030E8E316FE
S113226034E0F30629F460E483E00E94671EB7C0FB
S113227080EAE81684E0F80629F460E485E00E9428
S1132280671EADC0F70184818F7E8483FB012481A6
S11322902250C701F0EAEF16F8E0FF0649F48091F6
S11322A04E0684FDA5C00F2EF1E1DF2EF02DA4C053
S11322B0803B38E0930791F0803AE9E09E0749F4C7
S11322C030916E0634FD9BC00F2EF9E1DF2EF02D08
S11322D016C0803BF9E09F07F1F004C00F2EF5E132
S11322E0DF2EF02D803A3AE0930749F480918E0670
S11322F084FD8AC00F2EF1E2DF2EF02D15C0803A46
S11323009B4091F48091AE0684FD0AC00F2EF9E241
S1132310DF2EF02D09C00F2EFDE1DF2EF02D04C0BD
S11323200F2EFDE2DF2EF02DED2DE695E695E695D8
S113233030E2E39FF0011124FA5F3D2D377081E014
S113234090E0032E02C0880F991F0A94E2F781835C
S1132350223010F040E001C040E4DF015096A30FAA
S1132360B11D9FB79983F89439812C9127702C93D0
S11323709C91942B9C933FBF8583F7018581806C4E
S11323808583F80184818D7F813029F4F70185816B
S11323908260858304C0F70185818D7F8583F80180
S11323A08581882329F0F70185818460858304C0B1
S11323B0F70185818B7F8583F8014081518162819A
S11323C0738100E814E82EE130E0C701F8DDF7017D
S11323D08481886084838481806184831AC0F70146
S11323E084818F7E8483F80124812250C70160CFC9
S11323F00F2EF5E1DF2EF02D80EA98E06ACF0F2E44
S1132400FDE1DF2EF02D7BCF0F2EF5E2DF2EF02D38
S11324108BCF0F90DF91CF911F910F91FF90EF9091
S1132420DF900895FC010396818392832FEF3FEFA1
S113243023833483858396838783908710820895CA
S1132440FC01108611860895CF93DF939C01FB0154
S1132450DC011196CD91DC911297C283D3838C81D8
S11324609D81848395838C819D81DC0112966D937B
S11324707C9313976C837D8320873187F901808156
S11324808F5F8083DF91CF910895CF93DF93EB012A
S1132490488159814F3F2FEF520721F4FC01A78156
S11324A0B0850DC0DC01139601C0DF011296ED91D9
S11324B0FC9113972081318142175307B0F712968C
S11324C0ED91FC911397EA83FB83C483D583AC839A
S11324D0BD831296CD93DC93139788879987FC016B
S11324E020812F5F2083DF91CF910895CF93DF93D5
S11324F0FC01A085B185C281D381848195818C83BF
S11325009D83C481D581828193818A839B83119623
S11325108D919C911297E817F90731F48481958184
S113252011968D939C931297108611868C918150ED
S11325308C938C91DF91CF9108950F931F938B010E
S113254071E1FC017083319762E26083319723E388
S11325502083012E000C220B330B3197008331971B
S113256010833197208331971082319720E820839C
S113257031971082319722E02083319723E0208322
S1132580319724E02083319725E02083319726E09A
S11325902083319727E02083319728E020833197E7
S11325A029E02083319720E120833197708331978C
S11325B022E12083319723E12083319724E1208392
S11325C0319725E12083319726E12083319727E154
S11325D02083319728E12083319729E120833197A3
S11325E020E22083319721E2208331976083319761
S11325F023E220833197408331975083319726E239
S11326002083319727E22083319728E22083319772
S113261029E22083319720E32083319721E320832B
S113262087971F910F910895F894E0E7F0E0838174
S11326308A7F8383E0E0F8E080E09AEF86A397A3A3
S113264091E09683A0EAB0E012968C911297816093
S113265012968C9390837894A091C323B091C42351
S11326600D900DBE0D900EBEFF91EF91DF91CF91B5
S1132670BF91AF919F918F917F916F915F914F9196
S11326803F912F911F910F91FF90EF90DF90CF908A
S1132690BF90AF909F908F907F906F905F904F907E
S11326A03F902F901F900F900FBE0F90089581E0E0
S11326B008950F920FB6F8940F921F9211242F923F
S11326C03F924F925F926F927F928F929F92AF92BE
S11326D0BF92CF92DF92EF92FF920F931F932F93AB
S11326E03F934F935F936F937F938F939F93AF9396
S11326F0BF93CF93DF93EF93FF93A091C323B09144
S1132700C4230DB60D920EB60D927ED6A091C323AE
S1132710B091C4230D900DBE0D900EBEFF91EF91AC
S1132720DF91CF91BF91AF919F918F917F916F91E5
S11327305F914F913F912F911F910F91FF90EF90D7
S1132740DF90CF90BF90AF909F908F907F906F90CD
S11327505F904F903F902F901F900F900FBE0F905F
S113276008950F920FB6F8940F921F9211242F928E
S11327703F924F925F926F927F928F929F92AF920D
S1132780BF92CF92DF92EF92FF920F931F932F93FA
S11327903F934F935F936F937F938F939F93AF93E5
S11327A0BF93CF93DF93EF93FF93A091C323B09193
S11327B0C4230DB60D920EB60D92E1D4811124D628
S11327C0A091C323B091C4230D900DBE0D900EBEF5
S11327D0FF91EF91DF91CF91BF91AF919F918F9135
S11327E07F916F915F914F913F912F911F910F9125
S11327F0FF90EF90DF90CF90BF90AF909F908F901D
S11328007F906F905F904F903F902F901F900F900C
S11328100FBE0F901895CF93DF93EC01A0D4CE0197
S11328200E941924EC0163D5CE01DF91CF91089564
S1132830CF93DF93009731F0EC0191D4CE010E9445
S1132840B12455D5DF91CF9108950FB6F8940F9226
S1132850FC01928D0F900FBE81E0911180E00895EC
S11328600F931F93CF93DF93EC01042F1A8D4C8D9C
S11328704423B9F1011116C050E08A819B810E9462
S11328803A252C8D8A819B81820F911D8A839B839B
S11328902C813D818217930720F1888199818A8355
S11328A09B831FC050E08E819F810E943A258C8DAE
S11328B090E09195819591092E813F81280F391FD0
S11328C02E833F83488159812417350730F42C81A6
S11328D03D81820F931F8E839F83023011F4111167
S11328E011501F5F1A8F80E0DF91CF911F910F91DC
S11328F00895FC01448D4423A9F050E026813781DA
S1132900240F351F2683378384819581281739073F
S113291020F08081918186839783CB0166817781C2
S11329200C943A250895EF92FF920F931F93CF933F
S11329308C010FB6F8940F92FC01C68D1C169CF402
S11329408189811106C00FC0F8018189811105C0F8
S11329500AC07801F1E1EF0EF11CC701E4D5811141
S113296060D6C15089F78FEFF801868F0F900FBEA4
S11329700FB6F8940F92C58D1C169CF480858111B6
S113298006C00FC0F8018085811105C00AC0780116
S1132990F8E0EF0EF11CC701C6D5811142D6C15033
S11329A089F78FEFF801858F0F900FBECF911F919C
S11329B00F91FF90EF900895CF93DF93EC010FB642
S11329C0F8940F92E881F9818B8D2C8D90E030E0A2
S11329D0829FA001839F500D929F500D11244E0F92
S11329E05F1F4C835D831A8EEA83FB830197829F6A
S11329F0A001839F500D929F500D1124CF01840F8D
S1132A00951F8E839F838FEF8D8F8E8F61110AC0E8
S1132A108885882369F0CE01089685D5882341F0FE
S1132A2048DE06C0CE010896FDDCCE014196FADCF4
S1132A300F900FBE81E0DF91CF9108950F931F9304
S1132A40CF93DF93082F162F869FC00111244F9632
S1132A50E2DEEC01009769F0111103C088839983C9
S1132A6003C04F96888399830B8F1C8F61E0CE013E
S1132A70A3DFCE01DF91CF911F910F910895AF9203
S1132A80BF92CF92DF92EF92FF920F931F93CF9357
S1132A90DF93CDB7DEB72597CDBFDEBF8C016B01C9
S1132AA04C835D83A22EB12C7C0188E0E80EF11CDE
S1132AB00FB6F8940F92F801928D838D981718F041
S1132AC0F2E0AF1215C04A2DB601C801C9DEF80103
S1132AD09189992339F0C801419625D5882321F09D
S1132AE0E8DD02C08111E5DD0F900FBE81E046C034
S1132AF08C819D81892B21F40F900FBE80E03EC014
S1132B00B11005C0CE01019656D5BB24B3940F90E5
S1132B100FBE25D30FB6F8940F92F801858D8F3F21
S1132B2009F4158EF801868D8F3F09F4168E0F90E7
S1132B300FBEBE016C5F7F4FCE01019647D5811158
S1132B4019C00FB6F8940F92F801928D0F900FBE32
S1132B50838D98130BC06C817D81C701BBD4C801E0
S1132B60E2DEC5D38111A4CFA4DDA2CFC801DBDE90
S1132B70BED39ECFC801D7DEBAD380E02596CDBFA1
S1132B80DEBFDF91CF911F910F91FF90EF90DF9007
S1132B90CF90BF90AF900895EF92FF920F931F9341
S1132BA0CF93DF938A01FC01528D338D531710F0BC
S1132BB02230F1F4422F7801EC011E8D8A8DCE0172
S1132BC04FDE1F3F79F489898823A1F0CE01419615
S1132BD0AAD4882389F0E114F10481F081E0F7019B
S1132BE080830DC0FF24F394F10EFE8E81E007C0B4
S1132BF080E005C081E003C081E001C081E0DF9195
S1132C00CF911F910F91FF90EF900895AF92BF92D3
S1132C10CF92DF92EF92FF920F931F93CF93DF93A4
S1132C20CDB7DEB72597CDBFDEBF8C015B014C83EA
S1132C305D83E12C6C0181E1C80ED11C0FB6F894C0
S1132C400F92F801F28CFF2091F0B501C80151DE1A
S1132C50FA94F801F28E8085882329F0C801089639
S1132C6062D4811126DD0F900FBE81E045C08C81B6
S1132C709D81892B21F40F900FBE80E03DC0E110AF
S1132C8005C0CE01019697D4EE24E3940F900FBEB5
S1132C9066D20FB6F8940F92F801858D8F3F09F430
S1132CA0158EF801868D8F3F09F4168E0F900FBE96
S1132CB0BE016C5F7F4FCE01019688D4811113C091
S1132CC0C801C3DD882359F06C817D81C60102D41B
S1132CD0C80129DE0CD38111B1CFEBDCAFCFC80121
S1132CE022DE05D3ABCFC8011EDE01D3C801ADDDA2
S1132CF0882309F4A3CF80E02596CDBFDEBFDF9102
S1132D00CF911F910F91FF90EF90DF90CF90BF90E4
S1132D10AF900895DF92EF92FF920F931F93CF939A
S1132D20DF93CDB7DEB72597CDBFDEBF8C016C83B3
S1132D307D83D12C7C0181E1E80EF11C0FB6F8945F
S1132D400F92F801828D882371F08150828F8085E3
S1132D50882329F0C8010896E6D38111AADC0F90D4
S1132D600FBE81E045C08C819D81892B21F40F9099
S1132D700FBE80E03DC0D11005C0CE0101961BD42A
S1132D80DD24D3940F900FBEEAD10FB6F8940F92BE
S1132D90F801858D8F3F09F4158EF801868D8F3FDC
S1132DA009F4168E0F900FBEBE016C5F7F4FCE01EB
S1132DB001960CD4811113C0C80147DD882359F052
S1132DC06C817D81C70186D3C801ADDD90D28111AC
S1132DD0B5CF6FDCB3CFC801A6DD89D2AFCFC801B0
S1132DE0A2DD85D2C80131DD882309F4A7CF80E0B4
S1132DF02596CDBFDEBFDF91CF911F910F91FF903C
S1132E00EF90DF900895CF93DF93EC010FB6F89421
S1132E100F928D8D8F3F09F41D8E8E8D8F3F09F497
S1132E201E8E0F900FBE8A8D811103C0CE01419674
S1132E3062D3CE0178DDDF91CF910895E0918223B2
S1132E40F09183238081811107C08FEF9FEF8093DE
S1132E506B2390936C230895E0918223F091832354
S1132E600580F681E02D0680F781E02D8281938133
S1132E7080936B2390936C230895C6E9D3E28881F1
S1132E808230E8F316DCFBCF0F931F93CF93DF93CD
S1132E90EC0100917423109175238091C3239091C8
S1132EA0C423029623DBC00FD11FE091C323F0910A
S1132EB0C423C283D383C017D10760F46091C323B2
S1132EC07091C42380918023909181236E5F7F4F02
S1132ED0DCDA16C06091C3237091C42380918223ED
S1132EE0909183236E5F7F4FD0DA80916B23909112
S1132EF06C23C817D90720F4C0936B23D0936C2399
S1132F00DF91CF911F910F9108954F925F926F922D
S1132F107F928F929F92AF92BF92CF92DF92EF9265
S1132F20FF920F931F93CF93DF934C016B015A01D0
S1132F302901CA0170DC3C01892B09F4D3C086E263
S1132F4090E069DCEC01892B59F06F8A788E81E07E
S1132F50A81AB108A60CB71CC114D10421F41FC0CF
S1132F60C30166DCBFC0D6018C91898F8C91882304
S1132F70A1F0AE01465E5F4FF6013196B8E0CB0E8C
S1132F80D11CCF012191DA012D93AD01DC018C918B
S1132F90882319F0CE16DF06A1F718A201C0198EF6
S1132FA0053008F004E00E8B6E01B2E0CB0ED11CAC
S1132FB0C60146DACE010C9643DAC887D98785E084
S1132FC090E0801B91098C879D87CA8BDB8B19A2AB
S1132FD01AA21BA21CA21DA2A201B401C501ADDA52
S1132FE088839983E114F10419F0F701C083D18334
S1132FF00FB6F8940F92809176238F5F8093762397
S11330008091C3239091C423892B69F5C093C32372
S1133010D093C423809176238130A9F506E913E285
S11330200F2EF3ECEF2EF3E2FF2EF02DC801FAD9A8
S1133030075F1F4F0E151F05C9F78DE893E2F2D9FC
S113304084E893E2EFD987E793E2ECD98DE893E241
S1133050809382239093832384E893E28093802354
S11330609093812310C08091722381110CC0E09150
S1133070C323F091C42396898E89891720F0C093C5
S1133080C323D093C42380916D238F5F80936D23DA
S11330908E8990917323981710F48093732390E092
S11330A09C01220F331F220F331F220F331F820F65
S11330B0931FB6018A569C4DC7D90F900FBE8091BD
S11330C07223882359F0E091C323F091C423968995
S11330D08E89981728F4EDDA81E005C081E003C0F9
S11330E081E001C08FEFDF91CF911F910F91FF908D
S11330F0EF90DF90CF90BF90AF909F908F907F9094
S11331006F905F904F900895EF92FF920F930F2E60
S1133110F9E6EF2EF3E2FF2EF02D00E020E030E0A0
S113312045E550E061E170E28DE397E1EEDE813048
S113313091F4E0D2813079F4F8948FEF9FEF80938B
S11331406B2390936C2381E08093722310927423F9
S11331501092752369DA0F91FF90EF900895809192
S113316068238F5F8093682308950FB6F8940F92B5
S113317080917423909175230F900FBE0895DF9270
S1133180EF92FF920F931F93CF93DF938091682365
S113319081119AC0E0907423F09075238FEFE81AA0
S11331A0F80AE0927423F0927523E114F104B1F467
S11331B080918223909183232091802330918123D5
S11331C020938223309383238093802390938123BD
S11331D080916E238F5F80936E2330DE80916B230A
S11331E090916C23E816F90610F4D12C4FC0D12C21
S11331F0E0918223F09183238081811107C08FEFB6
S11332009FEF80936B2390936C2340C0E0918223C3
S1133210F09183230580F681E02DC681D7818A81D0
S11332209B81E816F90628F480936B2390936C2312
S11332302DC08E010E5F1F4FC80158D98C899D89FE
S1133240892B19F0CE010C9651D98E899091732354
S1133250981710F48093732390E09C01220F331F7E
S1133260220F331F220F331F820F931FB8018A5678
S11332709C4DEAD8E091C323F091C4239E898689AA
S1133280981708F4B5CFDD24D394B2CFE091C323CB
S1133290F091C423868990E0FC01EE0FFF1FEE0F2E
S11332A0FF1FEE0FFF1F8E0F9F1FFC01EA56FC4D00
S11332B08081823010F0DD24D39480916F238823A1
S11332C069F0DD24D3940AC0809170239091712316
S11332D001968093702390937123D12C8D2DDF91CF
S11332E0CF911F910F91FF90EF90DF900895DF929F
S11332F0EF92FF920F931F93CF93DF930FB6F8943F
S11333000F92809168238150809368238091682371
S113331081115DC080917623811130C05BC0D701DB
S11333201596ED91FC911697C681D781CE010C9626
S1133330DDD88E010E5F1F4FC801D8D88E899091B9
S11333407323981710F48093732390E09C01220F49
S1133350331F220F331F220F331F820F931FB80115
S11333608A569C4D71D8E091C323F091C4239E8961
S11333708689981768F0D0926F230AC0C0E0D0E025
S11333800F2EF7E7EF2EF3E2FF2EF02DDD24D3947A
S1133390F70180818111C3CFCD2B09F04FDDC0919E
S11333A07023D0917123209759F011E0E8DE811148
S11333B010936F232197D1F71092702310927123E9
S11333C080916F23882329F074D981E003C080E0C1
S11333D001C080E00F900FBEDF91CF911F910F913C
S11333E0FF90EF90DF900895CF93DF93EC01892B4A
S11333F039F0B5DE60E0CE0147DD79DF811101C02F
S113340058D9DF91CF91089580916823882321F0C2
S113341081E080936F23089510926F23209173238A
S1133420822F90E0FC01EE0FFF1FEE0FFF1FEE0F47
S1133430FF1FE80FF91FEA56FC4D3081311111C00E
S11334402150822F90E0FC01EE0FFF1FEE0FFF1FB3
S1133450EE0FFF1FE80FF91FEA56FC4D30813323AE
S113346079F3AC01440F551F440F551F440F551FEA
S1133470480F591FDA01AA56BC4D1196ED91FC91E3
S113348012970280F381E02D1196ED93FC9312972D
S113349047565C4DE417F50729F442815381FD0139
S11334A041835283FC01EE0FFF1FEE0FFF1FEE0F4F
S11334B0FF1F8E0F9F1FFC01EA56FC4D0180F28115
S11334C0E02D868197818093C3239093C423209316
S11334D073230895CF93DF93EB016091C32370911D
S11334E0C423645F7F4F0E94451261E0CE01CCDCAF
S11334F0DF91CF9108950F931F93CF938B01C42F26
S11335006091C3237091C423645F7F4F0E9424128F
S1133510CC2311F00FEF1FEF6C2FC801B5DCCF9156
S11335201F910F9108950F931F93CF93DF93DC01A5
S11335301596ED91FC911697C681D7818E01045F93
S11335401F4FC8010E9476128091682381111CC00C
S11335500A501109C8010E9476128E899091732332
S1133560981710F48093732390E09C01220F331F6B
S1133570220F331F220F331F820F931FB8018A5665
S11335809C4D0E94241205C0B80187E793E20E9473
S11335902412E091C323F091C4239E89868989175C
S11335A020F481E080936F2301C080E0DF91CF910C
S11335B01F910F91089520916E23FC012083209187
S11335C07423309175232183328308950FB6F894C0
S11335D00F922091742330917523DC0111964D9143
S11335E05C911297E0916E23FC91FE1719F0241759
S11335F0350798F4241B350BFB01408151812417B6
S1133600350738F4421B530B40835183D4DF80E0E9
S113361005C01082118281E001C081E00F900FBECD
S1133620089581E080936F23089580917223882305
S113363031F080916823882321F080E0089581E0AF
S1133640089582E00895FC016283738380879187E3
S11336504617570790F0421B530B848595854817EE
S11336605907E0F4BF016E5F7F4F8091CB239091A7
S1133670CC230E94451280E008954217530718F4A2
S11336806217730768F4BF016E5F7F4F8091CD238B
S11336909091CE230E94451280E0089581E0089520
S11336A081E008950FB6F8940F928091C923909108
S11336B0CA23892BE1F488ED93E20E9412128FEC65
S11336C093E20E94121288ED93E28093CD239093AB
S11336D0CE238FEC93E28093CB239093CC2340E0D2
S11336E065E08AE0ABD98093C9239093CA230F90F5
S11336F00FBE0895EF92FF920F93D4DF8091C923F8
S11337009091CA23892B89F00F2EF7ECEF2EF3E268
S1133710FF2EF02D03E020E030E045E550E066E1C7
S113372070E28AE49CE1F1DB01C080E00F91FF903C
S1133730EF9008950F931F93CF93DF93CDB7DEB728
S11337402597CDBFDEBFE091C923F091CA233097FE
S113375051F1D90169834A835B838C839D836630ED
S1133760D4F463DF823059F420E0A801BE016F5F16
S11337707F4F8091C9239091CA2381D915C020E03D
S113378040E050E0BE016F5F7F4F8091C92390916C
S1133790CA2375D909C020E0AD01BE016F5F7F4F18
S11337A0CF01FAD901C080E02596CDBFDEBFDF91FD
S11337B0CF911F910F910895AF92BF92CF92DF9254
S11337C0EF92FF920F931F93CF93DF936C01CDDCA5
S11337D07C018091C5239091C623E816F90608F070
S11337E047C02FC00580F681E02DA080B180C6813E
S11337F0D7818E010E5F1F4FC8010E947612E8899F
S1133800F989CE0119958A8982FF1BC08C859D8513
S11338108A0D9B1DA816B90660F48A839B83C8870A
S1133820D987B8018091CD239091CE230E9445126F
S113383008C000E010E020E030E0A50160E0CE0127
S113384079DFE091CD23F091CE2380818111CACF1D
S11338508091CB239091CC238093CD239093CE233E
S1133860E093CB23F093CC2381E0F601808302C064
S1133870F6011082E092C523F092C623C701DF91BE
S1133880CF911F910F91FF90EF90DF90CF90BF9059
S1133890AF900895CF93DF9300D000D0CDB7DEB7BB
S11338A0CE0101965C01E82EFB2CE091CD23F09132
S11338B0CE238081882309F4CFC00580F681E02DD2
S11338C0C080D1804CDCC50177DF8C0189818111F6
S11338D046C00C151D05A0F10ADDE091CD23F09141
S11338E0CE230580F681E02D86809780C401029660
S11338F00E947612D40152968C91529782FF15C081
S11339001C966D917C911D976C0D7D1D9601A801EF
S1133910C40199DE882361F000E010E020E030E08B
S1133920A60160E0C40106DF03C08E7FF401828B30
S1133930D4015096ED91FC915197C401199580C022
S113394040E0B601601B710B8091C9239091CA239A
S11339505ADACDDC811174C00E94591371C0C7DCDE
S11339606FC0898188230CF46BC0CC80DD80F601A4
S113397082859385892B21F0C60102960E947612D6
S1133980CE01069619DFAC01E9810E2E000CFF0B67
S1133990EA30F10508F054C08827E250FF4F8F4FFA
S11339A031C7D60152968C915297816052968C936E
S11339B052972A813B811C966D917C911D97620FD1
S11339C0731FC60140DE8823D9F1D6015096ED91CC
S11339D0FC915197C6011995F601828982FF30C086
S11339E04A815B8184859585480F591F00E010E06A
S11339F020E030E060E0C6019DDE22C0D601529690
S1133A008C9152978E7F52968C931AC0F6018289BC
S1133A108160828B6A817B8164877587640F751FDF
S1133A209A01C60110DE0CC0D60152968C9181FD1C
S1133A3004C0C6010E94181403C08E7FF601828B55
S1133A4040E050E06E2D7F2D8091C9239091CA23D0
S1133A50DDD8811186CF29CF82DBC501ADDE8C0193
S1133A60898181117CCFE091CB23F091CC2380819B
S1133A7041E0811140E0C12CD12C63CF803A28E091
S1133A80920721F460E183E022C10895803B28E09D
S1133A90920721F460E283E01AC10895803A29E094
S1133AA0920721F460E184E012C10895803B29E08B
S1133AB0920721F460E284E00AC10895803A2AE082
S1133AC0920721F460E185E002C10895803A9B40A9
S1133AD019F460E186E0FBC008950F931F93CF9320
S1133AE0DF9300D000D0CDB7DEB709831A832B83D0
S1133AF03C834D831E82BE016F5F7F4F0E94111075
S1133B002696CDBFDEBFDF91CF911F910F9108950F
S1133B10FB018081E82FE695E695E69540E2E49F77
S1133B20F0011124FA5F877021E030E0A90102C09E
S1133B30440F551F8A95E2F746830895FB0180815F
S1133B40E82FE695E695E69540E2E49FF00111241E
S1133B50FA5F877021E030E0A90102C0440F551FCD
S1133B608A95E2F7458308958093E1239093E223B5
S1133B7008952091E1233091E22390E8899F200D5C
S1133B80311D1124F901E60FF11D408308952091A0
S1133B90E1233091E22390E8899F200D311D112407
S1133BA0F901E60FF11D80810895FF920F931F9391
S1133BB0CF93DF93E42FF0E0E80FF11DE138F10536
S1133BC01CF0C0E84C2F481B442309F450C0D62FE6
S1133BD0D695D695D69570E098E0D99F601971096D
S1133BE01124E1E0F0E0DF0102C0AA0FBB1F6A95D7
S1133BF0E2F7FA2E213021F0A8F0223039F137C053
S1133C00C42F1FEF180F012F0C0F602F8D2F0E9450
S1133C108C054F2D482B602F8D2F0E946004C150BE
S1133C2091F725C0C42F1FEF180FFA2EF094012F1F
S1133C300C0F602F8D2F0E948C054F2D4823602F71
S1133C408D2F0E946004C15091F711C0C42F1FEF43
S1133C50180F012F0C0F602F8D2F0E948C054F2DF4
S1133C604827602F8D2F0E946004C15091F7DF9187
S1133C70CF911F910F91FF900895FF920F931F937F
S1133C80CF93DF93222369F0F42E182FC22FDFEF96
S1133C90D60F6D2F6C0F202F4F2D812F86DFC15033
S1133CA0C1F7DF91CF911F910F91FF9008958FEF8E
S1133CB080937000809371008093720080937300EE
S1133CC08093740080937500809376000895CF9359
S1133CD0DF931F92CDB7DEB79FB79983F89499818C
S1133CE0E82FF0E0E059FF4F6095808168236083FE
S1133CF09FBF0F90DF91CF910895CF93DF931F92D1
S1133D00CDB7DEB79FB79983F8949981E82FF0E097
S1133D10E059FF4F8081682B60839FBF0F90DF9134
S1133D20CF9108954091CA01E62FF72F8093CA01DD
S1133D3084914093CA010895AF92BF92CF92DF92CB
S1133D40EF92FF920F931F93CF93DF93C82FE62E2A
S1133D50B42E690100E0F901248143816B2D8E2D7D
S1133D608CDFF601808181113AC08381282F26954A
S1133D7026952695877009F02F5FF601A4808C2F75
S1133D8090E03581831B91092A9D90011124829F23
S1133D90A001839F500D929F500D11240181128127
S1133DA0040F151FF601F380FF20A9F0D0E0C0E056
S1133DB08E2D8C0F9C2F977021F4F801D4910F5FF6
S1133DC01F4FDD2324F441E06B2D0E945505DD0FC8
S1133DD0CF5FFC12EDCFB394AA94A110E3CFDF918F
S1133DE0CF911F910F91FF90EF90DF90CF90BF90F4
S1133DF0AF900895DF92EF92FF920F931F93CF93AA
S1133E00DF93D62E042F7901EC01162F89918A3085
S1133E1031F4F70184818F5F080F1D2D09C08D30A7
S1133E2039F09701402F612F87DFF7018381180F45
S1133E3088818111EBCFDF91CF911F910F91FF907A
S1133E40EF90DF900895CF93DF93FC0120E030E002
S1133E50C62FD0E0DE01022E02C0B595A7950A94C4
S1133E60E2F7A0FD508B2F5F3F4F3196283031058C
S1133E7089F740FF0AC041FF03C0FC01658302C00B
S1133E80FC016683FC01618302C0FC016283DF9153
S1133E90CF91089543E050E061E080EE97E0D3DFF6
S1133EA043E050E062E080EE97E0CDDF43E050E095
S1133EB060E180E696E0C7DF41E050E460E280E63E
S1133EC096E0C1DF40E05BE160E280E896E0BBDFC2
S1133ED040E05BE162E080EA96E0B5DF40E05BE170
S1133EE064E080EA96E0AFDF43E050E062E080E621
S1133EF096E0A9DF43E050E068E080E696E0A3DFC7
S1133F0043E050E068E080EA96E09DDF43E050E063
S1133F1061E080E696E097DF43E050E068E080E00F
S1133F2096E091DF41E050E060E180E896E08BDFCD
S1133F3043E050E062E080E696E085DF43E050E055
S1133F4068E080E696E07FDF40E050E064E080E6F1
S1133F5096E079DF43E050E060E180EA96E073DFC9
S1133F6040E050E061E080E096E06DDF40E050E04A
S1133F7064E080E096E067DF40E050E062E080E2E9
S1133F8096E061DF43E050E068E080E496E05BDFC8
S1133F9040E050E064E080E496E055DF43E050E028
S1133FA068E080E696E04FDF40E050E064E080E6C1
S1133FB096E049DF43E050E068E080E896E043DFC4
S1133FC040E050E064E080E896E03DCF089504C00E
S1133FD06150710981099109611571058105910586
S1133FE0B9F708958091E7239091E823019680938F
S1133FF0E7239093E8230895CF93DF93CDB7DEB7FB
S1134000C058D109CDBFDEBFCE0101967C010F2E71
S1134010F3E2CF2EF0E2DF2EF02D6894332437F84C
S11340200F2EFFE08F2EF0E29F2EF02D0F2EF0E3E7
S1134030AF2EF0E2BF2EF02D0F2EFDE06F2EF0E23A
S11340407F2EF02D0F2EFEE14F2EF0E25F2EF02D8D
S11340506AE070E08091C1249091C2240E948A1683
S1134060813009F057C00FEE13E280EA98E00E9415
S1134070D10F8F3F09F45BC08A3009F44FC0F801B7
S113408081938F01F2CF7F926F925F924F929F93B1
S11340908F933AD50F900F900F900F900F900F9031
S11340A06CE470E08FEE93E2EED4009769F09F9297
S11340B08F92BF92AF929F938F9326D50F900F90BC
S11340C00F900F900F900F90809110208F938091FC
S11340D00F208F9380910E208F9380910D208F93CA
S11340E0DF92CF921F923F92FF92EF92D7D426E0B5
S11340F030E240E160E0C7017DDECDBFDEBF20E0FD
S113410040E050E060E070E08091C1249091C224CE
S11341100E943F1582E390E067D99ACF60E570E092
S11341208FEE93E2B0D4009709F0ADCFB9CF84E11C
S1134130E7E3F0E2D70101900D928A95E1F726E0DA
S113414030E240E160E0C70155DED9CFCF93DF9381
S1134150CDB7DEB7C058D109CDBFDEBF0F2EF0E416
S1134160EF2EF6E0FF2EF02D12E00F2EF0E2CF2E10
S1134170F6E0DF2EF02DAA24A394B12C6AE070E0BF
S11341808091C1249091C2240E948A16813009F042
S113419045C0F7011183F601808583FD17C082E1D4
S11341A0EBE4F0E2DE01119601900D928A95E1F7BD
S11341B080910F20909110200197F1F4A092ED23AB
S11341C0B092EE23F7011583168316C082E1EDE564
S11341D0F0E2DE01119601900D928A95E1F780914B
S11341E00F2090911020019739F41092ED23109232
S11341F0EE23F7011683158326E030E248E060E001
S1134200CE010196F7DD20E040E050E060E070E090
S11342108091C1249091C2240E943F1582E390E0D2
S1134220E3D8ACCFCF93DF93CDB7DEB7E297CDBF62
S1134230DEBF0F2EFFE6CF2EF0E2DF2EF02D0F2E85
S1134240F2E3BF2EF02DCE0101967C016AE070E00E
S11342508091C1249091C2240E948A16813009F071
S113426048C08091ED239091EE239F938F932091EA
S1134270EA232F932091E9232F939F938F93809187
S1134280EC238F938091EB238F938091E4238F937E
S11342908091E3238F93DF92CF921F92BF92FF927C
S11342A0EF92FCD36981CDBFDEBF662389F08E0116
S11342B00E5F1F4F80EA98E00E94C90F6BE07AE11D
S11342C080E090E084DEF80161918F016111F2CF0A
S11342D026E030E240E160E0C7018CDD20E040E010
S11342E050E060E070E08091C1249091C2240E946B
S11342F03F1582E390E078D8A9CFCF93DF93CDB771
S1134300DEB7C158D109CDBFDEBFE0E4F6E081E0FD
S11343108183858300E012E0552453940F2EFBE83B
S1134320AF2EF0E2BF2EF02D6894442447F8CE015E
S113433001966C0188248394912C0F2EF0E46F2E47
S1134340F6E07F2EF02D6AE070E08091C124909118
S1134350C2240E948A16813009F094C0C8010E94C8
S1134360CF058FB7CF57DF4F8883C158D040F8941B
S1134370CF57DF4F9881C158D040F80180818460C5
S113438080839FBFF801868180FFFCCF5682E4A022
S1134390F5A0C8010E94FB05FF92EF92BF92AF9275
S11343A01F924F92DF92CF9279D326E030E240E120
S11343B060E0C6011FDDCDBFDEBF99EDE9169EE0CA
S11343C0F90640F11092EB231092EC2380910D201A
S11343D090910E20892B79F41092E9231092EA230C
S11343E0F301558286E1EDE9F0E2D60101900D92E8
S11343F08A95E1F736C08092E9239092EA23F3018B
S1134400568286E1E3EBF0E2D60101900D928A95A3
S1134410E1F727C08092EB239092EC2380910D204A
S113442090910E20892B79F41092E9231092EA23BB
S1134430F301558286E1E9ECF0E2D60101900D9298
S11344408A95E1F70EC01092E9231092EA23F30152
S1134450558286E1EFEDF0E2D60101900D928A9546
S1134460E1F726E030E248E160E0C601C3DC20E089
S113447040E050E060E070E08091C1249091C2245B
S11344800E943F1588E290E00E94F4195CCFCF931C
S1134490DF93CDB7DEB7C058D109CDBFDEBF0F2E35
S11344A0F0E4CF2EFAE0DF2EF02D00E216E07724C0
S11344B073940F2EF5EF2F2EF0E23F2EF02D68941B
S11344C0662467F8CE0101965C010F2EF4E68F2E68
S11344D0912CF02D0F2EFCE24F2EF02D55245394E9
S11344E06AE070E08091C1249091C2240E948A16EF
S11344F0813009F085C0F6018081807F81608083EE
S1134500F80171827682758262E070E080E090E06A
S11345105EDDF8017682728266E870E080E090E009
S113452056DDE090E723F090E82367E270E080E056
S113453090E04DDD7894F801808580FDFCCF2091DA
S1134540E7233091E823F6018081807F8083F8940B
S11345508091E7239091E8238D32914038F0409286
S1134560E5235092E623E42CF52C20C02E193F09B4
S113457079011AF44FEFE41AF40AF594E794E092FF
S1134580E523F092E6239701A4E6B0E043D12BE0C3
S113459030E040E050E014D1C401821B930B8093BF
S11345A0E3239093E4238536910520F01092E323CE
S11345B01092E4238091E4238F938091E3238F93DB
S11345C0FF92EF923F922F921F926F92BF92AF92FF
S11345D065D226E030E240E060E0C5010BDC1092D9
S11345E0E7231092E82320E040E050E060E070E030
S11345F08091C1249091C2240E943F15CDBFDEBF9B
S11346008BE490E00E94F4196BCF1092A7088CE021
S11346108093A6081092A30883E08093A50888E1FC
S11346208093A408089580E49AE00E94110F62EF39
S11346307FE180E49AE00E94900FE0E4FAE0818157
S1134640887F81838AE390E086A397A386818C7F09
S113465086838681836086838081807F80830895BA
S1134660EF92FF920F93CF93DF93CDB7DEB72B97E3
S1134670CDBFDEBF1CDB0EDC87E08093A2000E946E
S1134680100580E18093850626E030E240E060E09A
S11346908BE091E2AFDB64E080E019DBE0E2F4E080
S11346A0818180FDFDCF66E176E185E090E08FDCDD
S11346B0ACDFB9DFBE016F5F7F4F80E092E00E9404
S11346C01B08AE01485F5F4F61E080E092E00E940A
S11346D09F089A818B818F7880618B83892F817E5B
S11346E08A831C8282E08D8381E0888780E28987C7
S11346F0BE016F5F7F4F80E092E00E94B107AE0180
S1134700485F5F4F61E080E092E00E94540888E0D7
S113471080932206E12CF12C03E020E030E048EE07
S113472053E06EED70E287E492E20E94851705E0A3
S113473020E030E048EE53E06EED70E28DE791E268
S11347400E94851704E020E030E048EE53E06EED6F
S113475070E286EA90E20E94851701E020E030E0F2
S113476048EE53E06EED70E282E191E20E9485171B
S113477002E020E030E048EE53E06EED70E28CEFB2
S11347809FE10E94851743E060E081E00E941E15CE
S11347908093C1249093C22420E040E050E060E084
S11347A070E00E943F150E94841880E090E02B96F0
S11347B0CDBFDEBFDF91CF910F91FF90EF900895B1
S11347C0A1E21A2EAA1BBB1BFD010DC0AA1FBB1F11
S11347D0EE1FFF1FA217B307E407F50720F0A21B83
S11347E0B30BE40BF50B661F771F881F991F1A94F0
S11347F069F760957095809590959B01AC01BD011A
S1134800CF010895EE0FFF1F881F8BBF0790F6910D
S1134810E02D1994A29FB001B39FC001A39F700D16
S1134820811D1124911DB29F700D811D1124911DB4
S113483008950F931F93CF93DF938230910510F463
S113484082E090E0E091C524F091C62420E030E0BD
S1134850A0E0B0E0309719F14081518102811381C9
S113486048175907C8F08417950769F4109731F071
S113487012960C93129713961C9327C00093C52489
S11348801093C62422C02115310519F0421753078D
S113489018F49A01BD01EF01DF01F801DBCF211506
S11348A03105F9F0281B390B2430310580F48A8155
S11348B09B816115710521F0FB018283938304C000
S11348C08093C5249093C624FE01329644C0FE0111
S11348D0E20FF31F81939193225031092883398386
S11348E03AC02091C3243091C424232B41F4209155
S11348F00220309103202093C3243093C4242091B8
S11349000020309101202115310541F42DB73EB727
S11349104091042050910520241B350BE091C324C1
S1134920F091C424E217F307A0F42E1B3F0B2817C1
S1134930390778F0AC014E5F5F4F2417350748F014
S11349404E0F5F1F4093C3245093C42481939193CB
S113495002C0E0E0F0E0CF01DF91CF911F910F9111
S11349600895CF93DF93009709F481C0FC01329737
S113497012821382A091C524B091C624109781F4A9
S113498020813181820F931F2091C3243091C4244C
S11349902817390751F5E093C324F093C42467C062
S11349A0ED0120E030E0CE17DF0740F44A815B815F
S11349B09E0141155105F1F0EA01F5CFC283D3837D
S11349C040815181840F951FC817D90759F48881F4
S11349D09981840F951F0296808391838A819B819C
S11349E0828393832115310529F4E093C524F09340
S11349F0C6243DC0E901EA83FB8349915991C40F60
S1134A00D51FEC17FD0761F480819181840F951FF8
S1134A100296E90188839983828193818A839B83A7
S1134A20E0E0F0E012968D919C911397009719F0B5
S1134A30FD01DC01F7CF8D919C9111979D012E5FB3
S1134A403F4F820F931F2091C3243091C424281711
S1134A50390769F4309729F41092C5241092C624BA
S1134A6002C012821382A093C324B093C424DF91A2
S1134A70CF910895FB01DC0102C001900D924150D9
S1134A805040D8F70895FC018191861721F08823BE
S1134A90D9F7992708953197CF0108950F931F935C
S1134AA0CF93DF93CDB7DEB72E97CDBFDEBF0E8990
S1134AB01F89888D998D26E02C8309831A8397FF9B
S1134AC002C080E090E801978D839E83AE01445E2E
S1134AD05F4F6A8D7B8DCE01019631D04D815E8111
S1134AE057FD0AC02F813885421753070CF49A01E9
S1134AF0F801E20FF31F10822E96CDBFDEBFDF91C7
S1134B00CF911F910F910895CF93DF93CDB7DEB767
S1134B102E97CDBFDEBF85E08C838C899D898983E8
S1134B209A83AE01485E5F4F6E897F89CE010196FC
S1134B30A9D32E96CDBFDEBFDF91CF9108952F92DA
S1134B403F924F925F926F927F928F929F92AF9219
S1134B50BF92CF92DF92EF92FF920F931F93CF9366
S1134B60DF93CDB7DEB72B97CDBFDEBF6C017B01E2
S1134B708A01FC0116821782838181FFBFC1CE01A5
S1134B8001963C01F6019381F70193FD859193FF12
S1134B9081917F01882309F4ADC1853239F493FDF5
S1134BA0859193FF81917F01853221F4B60190E0D4
S1134BB0E7D4E8CF912C212C312CFFE1F315D8F068
S1134BC08B3279F038F4803279F08332A1F4232DDA
S1134BD020611DC08D3261F0803369F4232D216082
S1134BE016C0832D8260382EE32DE4603E2E2AC049
S1134BF0F32DF8601DC037FC2DC020ED280F2A309E
S1134C0040F08E32B9F436FC75C1232D2064322E67
S1134C1019C036FE06C08AE0989E200D1124922EFB
S1134C2011C0EAE02E9E200D1124222EF32DF062F5
S1134C303F2E08C08C3621F4832D8068382E02C0A4
S1134C40883641F4F70193FD859193FF81917F01AB
S1134C508111B3CF982F9F7D9554933028F40C5F26
S1134C601F4F9FE399830DC0833631F0833771F072
S1134C70833509F055C020C0F801808189830E5F17
S1134C801F4F88248394912C530112C02801F2E011
S1134C904F0E511CF801A080B18036FE03C0692D6F
S1134CA070E002C06FEF7FEFC50121D44C01820197
S1134CB0F32DFF773F2E15C0280122E0420E511C30
S1134CC0F801A080B18036FE03C0692D70E002C0F7
S1134CD06FEF7FEFC50100D44C01F32DF0683F2E38
S1134CE0820133FC19C0822D90E088169906A0F445
S1134CF0B60180E290E044D42A94F5CFF50137FC64
S1134D00859137FE81915F01B60190E039D421107D
S1134D102A9421E0821A91088114910479F7E1C060
S1134D20843611F0893639F5F80137FE07C0608101
S1134D307181828193810C5F1F4F08C060817181F2
S1134D40072E000C880B990B0E5F1F4FF32DFF7677
S1134D503F2E97FF09C090958095709561957F4F80
S1134D608F4F9F4FF0683F2E2AE030E0A3015DD4BF
S1134D70882E861844C0853731F4232D2F7EB22E19
S1134D802AE030E025C0932D997FB92E8F36C1F0EB
S1134D9018F4883579F0AEC0803719F0883721F0DF
S1134DA0A9C0E92FE061BE2EB4FE0DC0FB2DF46056
S1134DB0BF2E09C034FE0AC0292F2660B22E06C0B9
S1134DC028E030E005C020E130E002C020E132E01C
S1134DD0F801B7FE07C060817181828193810C5F05
S1134DE01F4F06C06081718180E090E00E5F1F4F0D
S1134DF0A3011BD4882E8618FB2DFF773F2E36FE89
S1134E000DC0232D2E7FA22E891458F434FE0BC01E
S1134E1032FC09C0832D8E7EA82E05C0B82CA32C8D
S1134E2003C0B82C01C0B92CA4FE0FC0FE01E80DCC
S1134E30F11D8081803321F49A2D997EA92E09C019
S1134E40A2FE06C0B394B39404C08A2D867809F0F8
S1134E50B394A3FC10C0A0FE06C0B21480F4280CC6
S1134E60922C9B180DC0B21458F4B60180E290E065
S1134E7087D3B394F8CFB21418F42B1802C0982C2B
S1134E80212CA4FE0FC0B60180E390E079D3A2FEEA
S1134E9016C0A1FC03C088E790E002C088E590E05A
S1134EA0B6010CC08A2D867851F0A1FE02C08BE2B7
S1134EB001C080E2A7FC8DE2B60190E061D38914C1
S1134EC030F4B60180E390E05BD39A94F8CF8A94EF
S1134ED0F301E80DF11D8081B60190E051D38110FA
S1134EE0F6CF222009F44ECEB60180E290E048D3FA
S1134EF02A94F7CFF6018681978102C08FEF9FEF46
S1134F002B96CDBFDEBFDF91CF911F910F91FF9004
S1134F10EF90DF90CF90BF90AF909F908F907F9055
S1134F206F905F904F903F902F90089520FD09C09F
S1134F30FC0123FD05C022FF02C0738362835183F9
S1134F404083089544FD17C046FD17C0AB01BC0162
S1134F50DA01FB01AA0FBB1FEE1FFF1F1094D1F74C
S1134F604A0F5B1F6E1F7F1FCB01BA01660F771FAD
S1134F70881F991F09C033E001C034E0660F771F12
S1134F80881F991F3150D1F7620F711D811D911D2A
S1134F9008950F931F93CF93DF938C01C801B2D26E
S1134FA0EC0197FD06C085D2892BC1F7B801CE016B
S1134FB023D3CE01DF91CF911F910F9108958F924A
S1134FC09F92AF92BF92EF92FF920F931F93CF9352
S1134FD0DF938C01D62F7A01B22E94D29C01332711
S1134FE02B32310531F02D32310559F48B2D806887
S1134FF0B82ED15011F480E061C0C80183D297FD6E
S1135000FACFCB2DCD7F2B2D2073F9F48033E9F427
S1135010AA24AA94AD0E09F43EC0C80173D297FD28
S11350203AC09C012F7D33272835310541F4C264F1
S1135030D25089F1C80166D297FF07C02CC0B6FED2
S113504002C0C26001C0C261DA2D812C912C5401CE
S113505020ED280F283078F0C4FF03C0B801CCD26B
S113506017C02A3040F0C6FFF9CF2F7D3FEE320F34
S11350703630A0F727504C2FC501B40163DF4B0134
S11350805C01C260D15051F0C8013CD297FFE0CF1F
S1135090C1FD04C0B0CF812C912C5401C7FF08C0BE
S11350A0B094A09490948094811C911CA11CB11C78
S11350B02C2FB501A401C70139DF81E0DF91CF9125
S11350C01F910F91FF90EF90BF90AF909F908F90A2
S11350D008955F926F927F928F929F92AF92BF9248
S11350E0CF92DF92EF92FF920F931F93CF93DF93B0
S11350F0CDB7DEB7A097CDBFDEBF5C01962E7A0197
S1135100F9018E010F5F1F4F680180E2D8011D92E3
S11351108A95E9F7D50113968C9080E090E0612C94
S1135120712C30E061E070E083FC259183FE2191D5
S11351308F01522E211103C080E090E090C02E35E3
S113514011F4009751F1432F50E0481759073CF4EC
S11351502D3559F12D3219F4772009F103C0772048
S113516009F468C0452D469546954695D601A40F89
S1135170B11D452D47708B0102C0000F111F4A95C8
S1135180E2F7A8015C91452B4C93651459F0561431
S113519010F45394E7CF5A94E5CF31E004C0772458
S11351A0739401C0712C0196BFCF772019F08E81C2
S11351B080628E83311103C08824839417C0F60162
S11351C09E012F5D3F4F8081809581932E173F076D
S11351D0D1F7F2CFE114F10429F0D7018C93F70150
S11351E031967F019A94812C9920E9F0C5018AD1E6
S11351F097FD17C0FC01FF2723E0F595E7952A9555
S1135200E1F7EC0DFD1D208130E0AC01477055271E
S113521002C0359527954A95E2F720FDDBCFB5010D
S1135220EBD1811089CFE114F10411F0D7011C9264
S1135230C80115C0422F469546954695D601A40F40
S1135240B11D422F47708B0102C0000F111F4A95F8
S1135250E2F7A8015C91452B4C93622EA4CFA09653
S1135260CDBFDEBFDF91CF911F910F91FF90EF90E3
S1135270DF90CF90BF90AF909F908F907F906F9072
S11352805F9008955F926F927F928F929F92AF92F8
S1135290BF92CF92DF92EF92FF920F931F93CF931F
S11352A0DF936C01EB015A01FC0116821782512C29
S11352B0F601E380FE01E3FC8591E3FE8191182F62
S11352C0EF01882309F4E0C090E0F3D0892B19F0B2
S11352D0C6015FDEEDCF153241F4FE01E3FC15910A
S11352E0E3FE1191EF01153271F4C6010BD197FD64
S11352F0C9C0412F50E09C01332724173507C1F260
S1135300B6017AD1C1C01A3239F4E3FC1591E3FE37
S11353101191EF0101E001C000E0F12C20ED210F1B
S11353202A3078F402606F2D70E080E090E040E273
S113533009DEF62EFE01E3FC1591E3FE1191EF0167
S1135340EDCF01FF03C0F11003C09EC0FF24FA9407
S1135350183619F01C3651F010C0FE01E3FC15910B
S1135360E3FE1191EF01183641F408600460FE0178
S1135370E3FC1591E3FE1191EF01112309F484C0BC
S1135380612F70E080E192E09CD0892B09F47CC00D
S113539000FD07C0F50180809180C50102965C0183
S11353A002C0812C912C1E3649F4F60146815781A6
S11353B060E070E0202FC401B9DD7ACF1336A1F488
S11353C001FD02C0FF24F394C6019CD097FD5AC08E
S11353D08114910429F0F4018083C40101964C01E5
S11353E0FA94F110F1CF4AC01B3551F49E01A40187
S11353F06F2DC6016EDEEC01892B09F03FC039C068
S1135400C601C7DD97FD3EC01F3649F128F41436A6
S113541021F1193639F125C0133771F01537E9F048
S113542020C08114910429F0F4016082C401019622
S11354304C01FA94FF2059F0C60164D03C0197FD59
S113544006C037D0892B69F3B601C301D5D08114C6
S11354509104A1F0F401108211C0006203C0006144
S113546001C00064202FA4016F2DC601A8DD8111A5
S113547005C0F6018381807329F406C000FD18CFAE
S1135480539416CF552019F0852D90E002C08FEF6C
S11354909FEFDF91CF911F910F91FF90EF90DF90DD
S11354A0CF90BF90AF909F908F907F906F905F90C0
S11354B00895911118C1803219F089508550D0F7A0
S11354C00895FC010590061621F00020D9F7C001CB
S11354D008953197CF010895FC0105906150704003
S11354E00110D8F7809590958E0F9F1F0895FC01A9
S11354F06150704001900110D8F7809590958E0FFF
S11355009F1F0895CF93DF93EC012B8120FF33C0BD
S113551026FF0AC02F7B2B838E819F8101968E8369
S11355209F838A8190E029C022FF0FC0E881F9811E
S11355308081082E000C990B009719F420622B83AC
S11355401AC03196E883F9830EC0EA85FB85199564
S113555097FF09C02B81019611F080E201C080E120
S1135560822B8B8308C02E813F812F5F3F4F2E8378
S11355703F83992702C08FEF9FEFDF91CF9108956A
S11355800F931F93CF93DF93FB01238121FD03C06E
S11355908FEF9FEF2CC022FF16C0468157812481D4
S11355A035814217530744F4A081B1819D012F5FD7
S11355B03F4F208331838C93268137812F5F3F4F68
S11355C02683378314C08B01EC01FB010084F18531
S11355D0E02D1995892BE1F6D80116968D919C91B1
S11355E01797019616968D939C931797CE01DF918A
S11355F0CF911F910F910895FB01238120FF12C0C9
S113560026FD10C08F3F3FEF930761F082832F7D0B
S113561020642383268137812150310926833783EF
S1135620992708958FEF9FEF0895FA01AA2728304C
S113563051F1203181F1E8946F936E7F6E5F7F4F5B
S11356408F4F9F4FAF4FB1E03ED0B4E03CD0670FD7
S1135650781F891F9A1FA11D680F791F8A1F911D2A
S1135660A11D6A0F711D811D911DA11D20D009F47A
S113567068943F912AE0269F11243019305D3193BC
S1135680DEF6CF010895462F4770405D4193B3E0A5
S11356900FD0C9F7F6CF462F4F70405D4A3318F04C
S11356A0495D31FD4052419302D0A9F7EACFB4E0FD
S11356B0A6959795879577956795BA95C9F70097B5
S11356C06105710508959B01AC010A2E0694579556
S11356D0479537952795BA95C9F7620F731F841FAD
S11356E0951FA01D0895992788270895F894FFCF42
S11356F00000C7242000001C020607207D010001D1
S11357000049444C4500546D722053766300503A6E
S11357102564005265636569766520503A256420E6
S11357204C45443A256400526563656976652055A5
S11357304152543A2046616C7365004C6967687441
S1135740206465746563746564202020004E6F20B6
S11357506C69676874206465746563746564005774
S11357604C3A257520483A2575204C3A2575205029
S11357703A2575204C45443A257500536F696C3AB7
S11357802025752020202020202020200054616E18
S11357906168206B6572696E6720202020202020BC
S11357A020200054616E6168206B6572696E672009
S11357B050756D70204F4E200054616E6168206CEE
S11357C0656D62616220202020202020202000546A
S11357D0616E6168206C656D6261622050756D70E8
S11357E0204F46460050616E6A616E673A20256418
S11357F020636D202564252520200050726F796573
S11358006B205541532053696E616D626F730000C4
S9030000FC
