:1000000050C200006FC200006DC200006BC2000051
:1000100069C2000067C2000065C2000063C2000040
:1000200061C200005FC200005DC200005BC2000050
:1000300059C2000057C200000C9495130C94E408B8
:100040000C9411090C943E090C946B090C949809BA
:100050000C94C5090C94F2090C941F0A0C944C0AD8
:1000600041C200003FC200003DC200003BC2000090
:1000700039C2000037C2000035C2000033C20000A0
:1000800031C200002FC200002DC200002BC20000B0
:1000900029C2000027C2000025C2000094C600004B
:1000A000C4C60000F4C6000024C700001BC2000044
:1000B00019C2000017C2000015C200000C943B0CCE
:1000C0000C94680C0C94950C0C94C20C0C94EF0CD2
:1000D0000C941C0D0C94490D0C94760D0C94A30DEE
:1000E0000C94D00DFFC10000FDC10000FBC1000059
:1000F000F9C10000F7C10000F5C10000F3C1000024
:10010000F1C10000EFC10000EDC10000EBC1000033
:10011000E9C10000E7C10000E5C100008CC5000096
:10012000BCC50000ECC500001CC60000DBC100001F
:10013000D9C100000C94790A0C94A60A0C94D30A35
:100140000C94000B0C942D0B0C945A0B0C94870BF5
:100150000C94B40B0C94E10B0C940E0CC3C1000076
:10016000C1C10000BFC10000BDC10000BBC1000093
:10017000B9C10000B7C10000B5C10000B3C10000A3
:10018000B1C10000AFC10000ADC10000ABC10000B3
:10019000A9C10000A7C10000A5C10000A3C10000C3
:1001A000A1C100009FC100009DC100009BC10000D3
:1001B0000C94FD0D0C942A0E0C94570E0C94840E86
:1001C0000C94B10E0C94DE0E8DC100008BC10000AA
:1001D00089C1000087C1000085C1000083C1000003
:1001E00081C100007FC100007DC100007BC1000013
:1001F00079C1000077C1000075C10000B51CB51CB5
:10020000B51CE21CEA1CF81CB51CB51CE21CEA1C5F
:10021000000000000000002020202020002050507E
:1002200050000000005050F850F850502078A07056
:1002300028F020C0C810204098186090A040A890D6
:100240006860204000000000102040404020104026
:10025000201010102040005020F8205000002020D6
:10026000F820200000000000602040000000F8009E
:1002700000000000000000606000081020408000C6
:10028000708898A8C888702060202020207070880E
:1002900008102040F8F81020100888701030509096
:1002A000F81010F880F008088870304080F08888D6
:1002B00070F80810204040407088887088887070FE
:1002C00088887808106000606000606000006060EE
:1002D00000602040081020402010080000F800F8BE
:1002E00000008040201020408070880810200020EE
:1002F00070880868A8A87070888888F88888F0884E
:1003000088F08888F070888080808870E090888885
:100310008890E0F88080F08080F8F88080E080802D
:100320008070888080988870888888F8888888702D
:10033000202020202070381010101090608890A08D
:10034000C0A09088808080808080F888D8A8888825
:1003500088888888C8A898888870888888888870DD
:10036000F08888F080808070888888A89068F088FD
:1003700088F0A09088788080700808F0F82020200D
:100380002020208888888888887088888888885075
:1003900020888888A8A8D88888885020508888888D
:1003A000885020202020F80810204080F838202095
:1003B0002020203800804020100800E0202020204D
:1003C00020E020508800000000000000000000F83D
:1003D00040201000000000000070087888788080BD
:1003E000B0C88888F000007080808870080868981D
:1003F00088887800007088F88070304840E040407D
:1004000040000078887808308080B0C888888820CC
:100410000060202020701000301010906040404894
:1004200050605048602020202020700000D0A8A8F4
:1004300088880000B0C88888880000708888887024
:100440000000F088F08080000068987808080000BC
:10045000B0C8808080000070807008F04040E040AC
:100460004048300000888888986800008888885054
:100470002000008888A8A8500000885020508800DC
:100480000088887808700000F8102040F8102020BC
:10049000402020102020202020202040202010203C
:1004A000204011241FBECFEFCDBFDFE5DEBF00E04F
:1004B0000CBF10E2A0E0B0E2ECE8FDE400E00BBF0E
:1004C00002C007900D92A238B107D9F723E2A2E843
:1004D000B0E201C01D92AB3DB207E1F70E94F221EC
:1004E0000C94C4268DCD04C0615071098109910915
:1004F0006115710581059105B9F70895BF92CF92F5
:10050000DF92EF92FF920F931F93CF93DF931F928F
:10051000CDB7DEB700E016E06894FF24F3F8F801E9
:10052000F68264E070E080E090E0DDDFF801F582C3
:1005300064E070E080E090E0D6DF0F2EFBE2BF2E9B
:10054000F02DB98280EA99E00E94221DC12CD12CA5
:10055000760100E412E42FE030E043E0BE016F5F7B
:100560007F4F80EA99E00E94511D00E616E0FF24CB
:10057000F394F801F682B982BE016F5F7F4F80EA83
:1005800099E00E946C1DF801F682E0EAF9E08181B1
:1005900085FFFDCF80EA8093A009E0EAF9E0818140
:1005A00086FFFDCFE0EAF9E080E481838081BE012F
:1005B0006F5F7F4F80EA99E00E94821D8BE2898302
:1005C000BE016F5F7F4F80EA99E00E946C1D81E061
:1005D00080936606E0EAF9E0818185FFFDCF86EA37
:1005E0008093A009E0EAF9E0818186FFFDCFE0EA8F
:1005F000F9E080E481838081BE016F5F7F4F80EAF4
:1006000099E00E94821D8BE28983BE016F5F7F4F5C
:1006100080EA99E00E946C1D81E080936606E0EA22
:10062000F9E0818185FFFDCF88EC8093A009E0EAA5
:10063000F9E0818186FFFDCFE0EAF9E080E4818383
:100640008081BE016F5F7F4F80EA99E00E94821D2A
:100650008BE28983BE016F5F7F4F80EA99E00E9441
:100660006C1D81E080936606E0EAF9E0818185FFF8
:10067000FDCF82EA8093A009E0EAF9E0818186FF5C
:10068000FDCFE0EAF9E080E481838081BE016F5F05
:100690007F4F80EA99E00E94821D8BE28983BE0130
:1006A0006F5F7F4F80EA99E00E946C1D81E080932C
:1006B0006606E0EAF9E0818185FFFDCF8FE2809355
:1006C000A009E0EAF9E0818186FFFDCFE0EAF9E0E8
:1006D00080E481838081BE016F5F7F4F80EA99E073
:1006E0000E94821D8BE28983BE016F5F7F4F80EA8B
:1006F00099E00E946C1D81E080936606E0EAF9E0D3
:10070000818185FFFDCF88EF8093A009E0EAF9E0C1
:10071000818186FFFDCFE0EAF9E080E4818380817A
:10072000BE016F5F7F4F80EA99E00E94821D8BE2DD
:100730008983BE016F5F7F4F80EA99E00E946C1D44
:1007400081E080936606E0EAF9E0818185FFFDCFD4
:100750001092A009E0EAF9E0818186FFFDCFE0EA8E
:10076000F9E080E481838081BE016F5F7F4F80EA82
:1007700099E00E94821D8BE28983BE016F5F7F4FEB
:1007800080EA99E00E946C1D81E080936606E0EAB1
:10079000F9E0818185FFFDCF81E28093A009E0EA45
:1007A000F9E0818186FFFDCFE0EAF9E080E4818312
:1007B0008081BE016F5F7F4F80EA99E00E94821DB9
:1007C0008BE28983BE016F5F7F4F80EA99E00E94D0
:1007D0006C1D81E080936606E0EAF9E0818185FF87
:1007E000FDCF81E88093A009E0EAF9E0818186FFEE
:1007F000FDCFE0EAF9E080E481838081BE016F5F94
:100800007F4F80EA99E00E94821D8BE28983BE01BE
:100810006F5F7F4F80EA99E00E946C1D81E08093BA
:100820006606E0EAF9E0818185FFFDCF81E28093F1
:10083000A009E0EAF9E0818186FFFDCFE0EAF9E076
:1008400080E481838081BE016F5F7F4F80EA99E001
:100850000E94821D8BE28983BE016F5F7F4F80EA19
:1008600099E00E946C1D81E080936606E0EAF9E061
:10087000818185FFFDCF8FEA8093A009E0EAF9E04E
:10088000818186FFFDCFE0EAF9E080E48183808109
:10089000BE016F5F7F4F80EA99E00E94821D0F903A
:1008A000DF91CF911F910F91FF90EF90DF90CF904C
:1008B000BF900895FF920F931F93CF93DF931F92E2
:1008C000CDB7DEB7082FF62E142F0E949D1D0F7096
:1008D000006B8BE28983BE016F5F7F4F80EA99E0F6
:1008E0000E946C1D81E080936606E0EAF9E0918148
:1008F00095FFFDCF0093A009E0EAF9E0818186FF32
:10090000FDCFE0EAF9E080E481838081BE016F5F82
:100910007F4F80EA99E00E94821D0F2D0F7702958C
:100920000F7000618BE28983BE016F5F7F4F80EAA9
:1009300099E00E946C1D81E080936606E0EAF9E090
:10094000818185FFFDCF0093A009E0EAF9E0818174
:1009500086FFFDCFE0EAF9E080E481838081BE017B
:100960006F5F7F4F80EA99E00E94821D0F2D0F700C
:100970008BE28983BE016F5F7F4F80EA99E00E941E
:100980006C1D81E080936606E0EAF9E0818185FFD5
:10099000FDCF0093A009E0EAF9E0818186FFFDCF59
:1009A000E0EAF9E080E481838081BE016F5F7F4FE0
:1009B00080EA99E00E94821D8BE28983BE016F5F0D
:1009C0007F4F80EA99E00E946C1D81E0809365066C
:1009D000E0EAF9E0818185FFFDCF1093A009E0EA0C
:1009E000F9E0818186FFFDCFE0EAF9E080E48183D0
:1009F000808181E080936606BE016F5F7F4F80EA51
:100A000099E00E94821D0F90DF91CF911F910F916D
:100A1000FF9008950F931F93CF93DF931F92CDB74D
:100A2000DEB782E890E20E94981D68DD8BE2898340
:100A3000BE016F5F7F4F80EA99E00E946C1D81E0EC
:100A400080936606E0EAF9E0818185FFFDCF80E4CE
:100A50008093A009E0EAF9E0818186FFFDCFE0EA1A
:100A6000F9E080E481838081BE016F5F7F4F80EA7F
:100A700099E00E94821D00E00AC040E0612F802FB3
:100A800019DF1F5F1038C9F70F5F043011F010E055
:100A9000F4CF0F90DF91CF911F910F910895FF92A6
:100AA0000F931F93CF93DF93882354F1603240F567
:100AB000D42FC82FF62EF694F694F69470E088E0C2
:100AC000F89E60197109112481E090E08C0102C048
:100AD000000F111F6A95E2F76C2F8F2D0E94AB1D3E
:100AE000D13021F028F0D23031F006C0802B04C084
:100AF0000095802301C08027482F6C2F8F2DDADED0
:100B0000DF91CF911F910F91FF9008950C94AB1D31
:100B10000895811522E0920769F48091832291E083
:100B2000980F90938322811114C062E081E00C94AD
:100B30004B1E08958034924061F48091822291E0AE
:100B4000980F90938222811104C062E082E00C949D
:100B50004B1E0895811522E0920761F48091832253
:100B6000815080938322811113C062E081E00C9454
:100B7000611E08958034924059F480918222815000
:100B800080938222811104C062E082E00C94611E95
:100B90000895EF92FF921F93CF93DF931F921F92BE
:100BA000CDB7DEB77C018FB78983F8941981C7016F
:100BB000B0DFF7018081816080831FBF8091CC23EB
:100BC0008F3F09F4FFCF8FB78A83F8949A81EBECBB
:100BD000F3E281818F5F81839FBF0F900F90DF9140
:100BE000CF911F91FF90EF9008951F93CF93DF93C4
:100BF0001F921F92CDB7DEB72FB72983F8941981C2
:100C0000FC0120812E7F2083A5DF1FBF8091CC2394
:100C1000811101C0FFCF8FB78A83F8949A81EBECE2
:100C2000F3E28181815081839FBF0F900F90DF910C
:100C3000CF911F9108951F920F920FB60F9211241A
:100C40000BB60F922F933F934F935F936F937F93C6
:100C50008F939F93AF93BF93EF93FF9340912402A1
:100C600050912502E091D323F091D42361E080E0FC
:100C700092E01995FF91EF91BF91AF919F918F9164
:100C80007F916F915F914F913F912F910F900BBE8C
:100C90000F900FBE0F901F9018951F920F920FB6D6
:100CA0000F9211240BB60F922F933F934F935F93A4
:100CB0006F937F938F939F93AF93BF93EF93FF9324
:100CC00040912C0250912D02E091D323F091D42336
:100CD00062E080E092E01995FF91EF91BF91AF91B2
:100CE0009F918F917F916F915F914F913F912F9144
:100CF0000F900BBE0F900FBE0F901F9018951F9274
:100D00000F920FB60F9211240BB60F922F933F93B1
:100D10004F935F936F937F938F939F93AF93BF9303
:100D2000EF93FF934091340250913502E091D32329
:100D3000F091D42364E080E092E01995FF91EF9167
:100D4000BF91AF919F918F917F916F915F914F91E3
:100D50003F912F910F900BBE0F900FBE0F901F90E1
:100D600018951F920F920FB60F9211240BB60F9287
:100D70002F933F934F935F936F937F938F939F93A3
:100D8000AF93BF93EF93FF9340913C0250913D028C
:100D9000E091D323F091D42368E080E092E01995AC
:100DA000FF91EF91BF91AF919F918F917F916F9143
:100DB0005F914F913F912F910F900BBE0F900FBEFF
:100DC0000F901F9018951F920F920FB60F9211243B
:100DD0000BB60F922F933F934F935F936F937F9335
:100DE0008F939F93AF93BF93EF93FF9340916402D0
:100DF00050916502E091D123F091D22361E080E42B
:100E000092E01995FF91EF91BF91AF919F918F91D2
:100E10007F916F915F914F913F912F910F900BBEFA
:100E20000F900FBE0F901F9018951F920F920FB644
:100E30000F9211240BB60F922F933F934F935F9312
:100E40006F937F938F939F93AF93BF93EF93FF9392
:100E500040916C0250916D02E091D123F091D22328
:100E600062E080E492E01995FF91EF91BF91AF911C
:100E70009F918F917F916F915F914F913F912F91B2
:100E80000F900BBE0F900FBE0F901F9018951F92E2
:100E90000F920FB60F9211240BB60F922F933F9320
:100EA0004F935F936F937F938F939F93AF93BF9372
:100EB000EF93FF934091740250917502E091D1231A
:100EC000F091D22364E080E492E01995FF91EF91D4
:100ED000BF91AF919F918F917F916F915F914F9152
:100EE0003F912F910F900BBE0F900FBE0F901F9050
:100EF00018951F920F920FB60F9211240BB60F92F6
:100F00002F933F934F935F936F937F938F939F9311
:100F1000AF93BF93EF93FF9340917C0250917D027A
:100F2000E091D123F091D22368E080E492E019951A
:100F3000FF91EF91BF91AF919F918F917F916F91B1
:100F40005F914F913F912F910F900BBE0F900FBE6D
:100F50000F901F901895BF92CF92DF92EF92FF9261
:100F60000F931F93CF93DF931F92CDB7DEB78C0102
:100F70007B01811522E0920781F461E270E082E05A
:100F80000E94761EC82ED12C60E270E082E00E94A2
:100F9000761EDC2CCC24C82A12C080349240D1F5B5
:100FA00065E270E082E00E94761EC82ED12C64E2D9
:100FB00070E082E00E94761EDC2CCC24C82A8FB719
:100FC0008983F894B980C801A4DDF801808192E09A
:100FD0009083C486D586F70125813681F801208F5C
:100FE000318FF7019281F8019283F7019481F80122
:100FF0009483F7019381F8019383F7019181F801BC
:1010000091838170F7019081892BF8018083C80159
:10101000A1DDBFBE0F90DF91CF911F910F91FF9087
:10102000EF90DF90CF90BF900895DF92EF92FF9204
:101030000F931F93CF93DF931F92CDB7DEB78C0131
:101040007B018FB78983F894D980C80162DDF801EC
:101050008081807CF7018083F801808D918DF7017C
:1010600085839683F8018281F7018283F801848168
:10107000F7018483F8018381F7018383F80181817B
:10108000F7018183C80166DDDFBE0F90DF91CF914C
:101090001F910F91FF90EF90DF900895AF92BF9254
:1010A000CF92DF92EF92FF920F931F93CF93DF9334
:1010B0001F92CDB7DEB76C01B62E7A01862F8370F2
:1010C00029F4962F9695969582E002C0962F80E09F
:1010D00090FF8F5F8601005E1F4F98E0899F000D93
:1010E000111D11248FB78983F894A980C60111DDE1
:1010F000F7018081F8018083F7018281F801828302
:10110000F7018181F8018183B0FE04C0F70183817A
:10111000F8018683C6011EDDAFBE0F90DF91CF912F
:101120001F910F91FF90EF90DF90CF90BF90AF9005
:101130000895AF92BF92CF92DF92EF92FF920F93FA
:101140001F93CF93DF931F92CDB7DEB76C01B62EFE
:101150007A01862F837029F4962F9695969582E0D2
:1011600002C0962F80E090FF8F5F8601005E1F4FC8
:1011700098E0899F000D111D11248FB78983F89481
:10118000A980C601C6DCF8018081F7018083F801DF
:101190008281F7018283F8018181F7018183B0FEAA
:1011A00004C0F8018681F7018383C601D3DCAFBE9A
:1011B0000F90DF91CF911F910F91FF90EF90DF90F3
:1011C000CF90BF90AF9008951F920F920FB60F92DD
:1011D00011240BB60F922F933F934F935F936F930E
:1011E0007F938F939F93AF93BF93EF93FF93E09180
:1011F000C822F091C922309709F01995FF91EF911B
:10120000BF91AF919F918F917F916F915F914F911E
:101210003F912F910F900BBE0F900FBE0F901F901C
:1012200018951F920F920FB60F9211240BB60F92C2
:101230002F933F934F935F936F937F938F939F93DE
:10124000AF93BF93EF93FF93E091C622F091C72233
:10125000309709F01995FF91EF91BF91AF919F9150
:101260008F917F916F915F914F913F912F910F904F
:101270000BBE0F900FBE0F901F9018951F920F92EC
:101280000FB60F9211240BB60F922F933F934F93EB
:101290005F936F937F938F939F93AF93BF93EF93DE
:1012A000FF93E091C422F091C522309709F019957F
:1012B000FF91EF91BF91AF919F918F917F916F912E
:1012C0005F914F913F912F910F900BBE0F900FBEEA
:1012D0000F901F9018951F920F920FB60F92112426
:1012E0000BB60F922F933F934F935F936F937F9320
:1012F0008F939F93AF93BF93EF93FF93E091C2229D
:10130000F091C322309709F01995FF91EF91BF91A9
:10131000AF919F918F917F916F915F914F913F918D
:101320002F910F900BBE0F900FBE0F901F9018952E
:101330001F920F920FB60F9211240BB60F922F939C
:101340003F934F935F936F937F938F939F93AF934D
:10135000BF93EF93FF93E091C022F091C1223097A9
:1013600009F01995FF91EF91BF91AF919F918F91E6
:101370007F916F915F914F913F912F910F900BBE95
:101380000F900FBE0F901F9018951F920F920FB6DF
:101390000F9211240BB60F922F933F934F935F93AD
:1013A0006F937F938F939F93AF93BF93EF93FF932D
:1013B000E091BE22F091BF22309709F01995FF917C
:1013C000EF91BF91AF919F918F917F916F915F91BD
:1013D0004F913F912F910F900BBE0F900FBE0F902A
:1013E0001F9018951F920F920FB60F9211240BB6F3
:1013F0000F922F933F934F935F936F937F938F93AE
:101400009F93AF93BF93EF93FF93E091BC22F09132
:10141000BD22309709F01995FF91EF91BF91AF91DF
:101420009F918F917F916F915F914F913F912F91FC
:101430000F900BBE0F900FBE0F901F9018951F922C
:101440000F920FB60F9211240BB60F922F933F936A
:101450004F935F936F937F938F939F93AF93BF93BC
:10146000EF93FF93E091BA22F091BB22309709F0FD
:101470001995FF91EF91BF91AF919F918F917F91BE
:101480006F915F914F913F912F910F900BBE0F90F5
:101490000FBE0F901F9018951F920F920FB60F92CC
:1014A00011240BB60F922F933F934F935F936F933B
:1014B0007F938F939F93AF93BF93EF93FF93E091AD
:1014C000B822F091B922309709F01995FF91EF9168
:1014D000BF91AF919F918F917F916F915F914F914C
:1014E0003F912F910F900BBE0F900FBE0F901F904A
:1014F00018951F920F920FB60F9211240BB60F92F0
:101500002F933F934F935F936F937F938F939F930B
:10151000AF93BF93EF93FF93E091B622F091B72280
:10152000309709F01995FF91EF91BF91AF919F917D
:101530008F917F916F915F914F913F912F910F907C
:101540000BBE0F900FBE0F901F9018951F920F9219
:101550000FB60F9211240BB60F922F933F934F9318
:101560005F936F937F938F939F93AF93BF93EF930B
:10157000FF93E091B422F091B522309709F01995CC
:10158000FF91EF91BF91AF919F918F917F916F915B
:101590005F914F913F912F910F900BBE0F900FBE17
:1015A0000F901F9018951F920F920FB60F92112453
:1015B0000BB60F922F933F934F935F936F937F934D
:1015C0008F939F93AF93BF93EF93FF93E091B222DA
:1015D000F091B322309709F01995FF91EF91BF91E7
:1015E000AF919F918F917F916F915F914F913F91BB
:1015F0002F910F900BBE0F900FBE0F901F9018955C
:101600001F920F920FB60F9211240BB60F922F93C9
:101610003F934F935F936F937F938F939F93AF937A
:10162000BF93EF93FF93E091B022F091B1223097F6
:1016300009F01995FF91EF91BF91AF919F918F9113
:101640007F916F915F914F913F912F910F900BBEC2
:101650000F900FBE0F901F9018951F920F920FB60C
:101660000F9211240BB60F922F933F934F935F93DA
:101670006F937F938F939F93AF93BF93EF93FF935A
:10168000E091AE22F091AF22309709F01995FF91C9
:10169000EF91BF91AF919F918F917F916F915F91EA
:1016A0004F913F912F910F900BBE0F900FBE0F9057
:1016B0001F9018951F920F920FB60F9211240BB620
:1016C0000F922F933F934F935F936F937F938F93DB
:1016D0009F93AF93BF93EF93FF93E091AC22F09170
:1016E000AD22309709F01995FF91EF91BF91AF911D
:1016F0009F918F917F916F915F914F913F912F912A
:101700000F900BBE0F900FBE0F901F9018951F9259
:101710000F920FB60F9211240BB60F922F933F9397
:101720004F935F936F937F938F939F93AF93BF93E9
:10173000EF93FF93E091AA22F091AB22309709F04A
:101740001995FF91EF91BF91AF919F918F917F91EB
:101750006F915F914F913F912F910F900BBE0F9022
:101760000FBE0F901F9018951F920F920FB60F92F9
:1017700011240BB60F922F933F934F935F936F9368
:101780007F938F939F93AF93BF93EF93FF93E091DA
:10179000A822F091A922309709F01995FF91EF91B5
:1017A000BF91AF919F918F917F916F915F914F9179
:1017B0003F912F910F900BBE0F900FBE0F901F9077
:1017C00018951F920F920FB60F9211240BB60F921D
:1017D0002F933F934F935F936F937F938F939F9339
:1017E000AF93BF93EF93FF93E091A622F091A722CE
:1017F000309709F01995FF91EF91BF91AF919F91AB
:101800008F917F916F915F914F913F912F910F90A9
:101810000BBE0F900FBE0F901F9018951F920F9246
:101820000FB60F9211240BB60F922F933F934F9345
:101830005F936F937F938F939F93AF93BF93EF9338
:10184000FF93E091A422F091A522309709F0199519
:10185000FF91EF91BF91AF919F918F917F916F9188
:101860005F914F913F912F910F900BBE0F900FBE44
:101870000F901F9018951F920F920FB60F92112480
:101880000BB60F922F933F934F935F936F937F937A
:101890008F939F93AF93BF93EF93FF93E091A22217
:1018A000F091A322309709F01995FF91EF91BF9124
:1018B000AF919F918F917F916F915F914F913F91E8
:1018C0002F910F900BBE0F900FBE0F901F90189589
:1018D0001F920F920FB60F9211240BB60F922F93F7
:1018E0003F934F935F936F937F938F939F93AF93A8
:1018F000BF93EF93FF93E091A022F091A122309744
:1019000009F01995FF91EF91BF91AF919F918F9140
:101910007F916F915F914F913F912F910F900BBEEF
:101920000F900FBE0F901F9018951F920F920FB639
:101930000F9211240BB60F922F933F934F935F9307
:101940006F937F938F939F93AF93BF93EF93FF9387
:10195000E0919E22F0919F22309709F01995FF9116
:10196000EF91BF91AF919F918F917F916F915F9117
:101970004F913F912F910F900BBE0F900FBE0F9084
:101980001F9018951F920F920FB60F9211240BB64D
:101990000F922F933F934F935F936F937F938F9308
:1019A0009F93AF93BF93EF93FF93E0919C22F091AD
:1019B0009D22309709F01995FF91EF91BF91AF915A
:1019C0009F918F917F916F915F914F913F912F9157
:1019D0000F900BBE0F900FBE0F901F9018951F9287
:1019E0000F920FB60F9211240BB60F922F933F93C5
:1019F0004F935F936F937F938F939F93AF93BF9317
:101A0000EF93FF93E0919A22F0919B22309709F097
:101A10001995FF91EF91BF91AF919F918F917F9118
:101A20006F915F914F913F912F910F900BBE0F904F
:101A30000FBE0F901F9018951F920F920FB60F9226
:101A400011240BB60F922F933F934F935F936F9395
:101A50007F938F939F93AF93BF93EF93FF93E09107
:101A60009822F0919922309709F01995FF91EF9102
:101A7000BF91AF919F918F917F916F915F914F91A6
:101A80003F912F910F900BBE0F900FBE0F901F90A4
:101A900018951F920F920FB60F9211240BB60F924A
:101AA0002F933F934F935F936F937F938F939F9366
:101AB000AF93BF93EF93FF93E0919622F09197221B
:101AC000309709F01995FF91EF91BF91AF919F91D8
:101AD0008F917F916F915F914F913F912F910F90D7
:101AE0000BBE0F900FBE0F901F9018951F920F9274
:101AF0000FB60F9211240BB60F922F933F934F9373
:101B00005F936F937F938F939F93AF93BF93EF9365
:101B1000FF93E0919422F0919522309709F0199566
:101B2000FF91EF91BF91AF919F918F917F916F91B5
:101B30005F914F913F912F910F900BBE0F900FBE71
:101B40000F901F9018951F920F920FB60F921124AD
:101B50000BB60F922F933F934F935F936F937F93A7
:101B60008F939F93AF93BF93EF93FF93E091922254
:101B7000F0919322309709F01995FF91EF91BF9161
:101B8000AF919F918F917F916F915F914F913F9115
:101B90002F910F900BBE0F900FBE0F901F901895B6
:101BA0001F920F920FB60F9211240BB60F922F9324
:101BB0003F934F935F936F937F938F939F93AF93D5
:101BC000BF93EF93FF93E0919022F0919122309791
:101BD00009F01995FF91EF91BF91AF919F918F916E
:101BE0007F916F915F914F913F912F910F900BBE1D
:101BF0000F900FBE0F901F9018951F920F920FB667
:101C00000F9211240BB60F922F933F934F935F9334
:101C10006F937F938F939F93AF93BF93EF93FF93B4
:101C2000E0918E22F0918F22309709F01995FF9163
:101C3000EF91BF91AF919F918F917F916F915F9144
:101C40004F913F912F910F900BBE0F900FBE0F90B1
:101C50001F9018951F920F920FB60F9211240BB67A
:101C60000F922F933F934F935F936F937F938F9335
:101C70009F93AF93BF93EF93FF93E0918C22F091EA
:101C80008D22309709F01995FF91EF91BF91AF9197
:101C90009F918F917F916F915F914F913F912F9184
:101CA0000F900BBE0F900FBE0F901F9018951F92B4
:101CB0000F920FB60F9211240BB60F922F933F93F2
:101CC0004F935F936F937F938F939F93AF93BF9344
:101CD000EF93FF93E0918A22F0918B22309709F0E5
:101CE0001995FF91EF91BF91AF919F918F917F9146
:101CF0006F915F914F913F912F910F900BBE0F907D
:101D00000FBE0F901F9018951F920F920FB60F9253
:101D100011240BB60F922F933F934F935F936F93C2
:101D20007F938F939F93AF93BF93EF93FF93E09134
:101D30008822F0918922309709F01995FF91EF914F
:101D4000BF91AF919F918F917F916F915F914F91D3
:101D50003F912F910F900BBE0F900FBE0F901F90D1
:101D600018951F920F920FB60F9211240BB60F9277
:101D70002F933F934F935F936F937F938F939F9393
:101D8000AF93BF93EF93FF93E0918622F091872268
:101D9000309709F01995FF91EF91BF91AF919F9105
:101DA0008F917F916F915F914F913F912F910F9004
:101DB0000BBE0F900FBE0F901F9018951F920F92A1
:101DC0000FB60F9211240BB60F922F933F934F93A0
:101DD0005F936F937F938F939F93AF93BF93EF9393
:101DE000FF93E0918422F0918522309709F01995B4
:101DF000FF91EF91BF91AF919F918F917F916F91E3
:101E00005F914F913F912F910F900BBE0F900FBE9E
:101E10000F901F9018951F93CF93DF931F921F92DF
:101E2000CDB7DEB72FB72A83F8941A81282F392F20
:101E3000211588E0380749F461E083E00E944B1ED9
:101E400064E083E00E944B1E4FC0203488E03807D6
:101E500049F462E083E00E944B1E64E083E00E944C
:101E60004B1E42C0211589E0380749F461E084E047
:101E70000E944B1E64E084E00E944B1E35C020345B
:101E800089E0380749F462E084E00E944B1E64E078
:101E900084E00E944B1E28C021158AE0380749F4CF
:101EA00061E085E00E944B1E64E085E00E944B1ECD
:101EB0001BC020348AE0380749F462E085E00E94C4
:101EC0004B1E64E085E00E944B1E0EC021153B4076
:101ED00049F461E086E00E944B1E64E086E00E94C7
:101EE0004B1E02C01FBF10C08091CC238F3F09F44E
:101EF000FFCF8FB78983F8949981EBECF3E281816E
:101F00008F5F81839FBF1FBF0F900F90DF91CF9195
:101F10001F910895811528E09207A1F1803428E0EF
:101F2000920729F46093BE227093BF220895811511
:101F300029E0920729F46093B6227093B72208959E
:101F4000803429E0920729F46093AA227093AB228F
:101F5000089581152AE0920729F46093A2227093D4
:101F6000A322089580342AE0920729F460939622F0
:101F700070939722089581159B4021F460938E22DF
:101F800070938F220895CF92DF92EF92FF920F937A
:101F90001F93CF93DF93EC01D901C801B695A795A4
:101FA00097958795481759076A077B0778F46A0160
:101FB0007B01CC0CDD1CEE1CFF1CC901B801A70184
:101FC00096010E9493222150310902C020E030E0A6
:101FD000832F8F708F832E83DF91CF911F910F916D
:101FE000FF90EF90DF90CF900895DF92EF92FF92F5
:101FF0000F931F93CF93DF931F92CDB7DEB77C0172
:102000008B01009709F4CFC1803C910529F460E170
:1020100080E00E944B1EC7C180E8E81681E0F80608
:1020200029F462E080E00E944B1EBDC1E114E1E0B2
:10203000FE0629F461E080E00E944B1EB4C1F0E886
:10204000EF16F3E0FF0629F461E081E00E944B1EE9
:10205000AAC130E9E31633E0F30629F461E082E037
:102060000E944B1EA0C1E11482E0F80629F462E050
:1020700081E00E944B1E97C1E0E4EE16E2E0FE060E
:1020800029F462E082E00E944B1E8DC1F0E2EF165F
:10209000F3E0FF0629F464E082E00E944B1E83C156
:1020A000E11438E0F30629F461E083E00E944B1E5E
:1020B0007AC1E11489E0F80629F461E084E00E9425
:1020C0004B1E71C1E114EAE0FE0629F461E085E0EF
:1020D0000E944B1E68C1E114FBE0FF0629F461E099
:1020E00086E00E944B1E5FC130E4E31638E0F30641
:1020F00029F462E083E00E944B1E55C180E4E8169B
:1021000089E0F80629F462E084E00E944B1E4BC18E
:10211000E0E4EE16EAE0FE0629F462E085E00E94C3
:102120004B1E41C1F0E9EF16F8E0FF0629F464E028
:1021300083E00E944B1E37C130E9E31639E0F30615
:1021400029F464E084E00E944B1E2DC180E9E8166A
:102150008AE0F80629F464E085E00E944B1E23C162
:10216000E0E9EE16EBE0FE0629F464E086E00E946A
:102170004B1E19C1F0ECEF16F8E0FF0629F468E0F9
:1021800083E00E944B1E0FC130ECE31639E0F306EA
:1021900029F468E084E00E944B1E05C180EAE8163D
:1021A00088E0F80669F460E183E00E944B1EE0EAF3
:1021B000F8E084818F7E8483F8012481225053C00B
:1021C000F0EAEF16F9E0FF0629F460E184E00E94EE
:1021D0004B1EE9C030EAE3163AE0F30629F460E169
:1021E00085E00E944B1EDFC080EAE8168BE0F8060F
:1021F00029F460E186E00E944B1ED5C0E0EBEE16AC
:10220000E8E0FE0629F460E283E00E944B1ECBC0AA
:10221000F0EBEF16F9E0FF0629F460E284E00E949B
:102220004B1EC1C030E8E31634E0F30629F460E445
:1022300083E00E944B1EB7C080EAE81684E0F806EF
:1022400029F460E485E00E944B1EADC0F701848153
:102250008F7E8483FB0124812250C701F0EAEF16B0
:10226000F8E0FF0649F480914E0684FDA5C00F2ECC
:10227000F1E1DF2EF02DA4C0803B38E0930791F010
:10228000803AE9E09E0749F430916E0634FD9BC028
:102290000F2EF9E1DF2EF02D16C0803BF9E09F07ED
:1022A000F1F004C00F2EF5E1DF2EF02D803A3AE078
:1022B000930749F480918E0684FD8AC00F2EF1E2C7
:1022C000DF2EF02D15C0803A9B4091F48091AE0630
:1022D00084FD0AC00F2EF9E2DF2EF02D09C00F2E6B
:1022E000FDE1DF2EF02D04C00F2EFDE2DF2EF02DDC
:1022F000ED2DE695E695E69530E2E39FF001112499
:10230000FA5F3D2D377081E090E0032E02C0880F08
:10231000991F0A94E2F78183223010F040E001C057
:1023200040E4DF015096A30FB11D9FB79983F89445
:1023300039812C9127702C939C91942B9C933FBFB7
:102340008583F7018581806C8583F80184818D7F89
:10235000813029F4F70185818260858304C0F7010B
:1023600085818D7F8583F8018581882329F0F70198
:1023700085818460858304C0F70185818B7F858397
:10238000F801408151816281738100E814E82EE1F7
:1023900030E0C701F8DDF70184818860848384819F
:1023A000806184831AC0F70184818F7E8483F80161
:1023B00024812250C70160CF0F2EF5E1DF2EF02DD2
:1023C00080EA98E06ACF0F2EFDE1DF2EF02D7BCF63
:1023D0000F2EF5E2DF2EF02D8BCF0F90DF91CF91F6
:1023E0001F910F91FF90EF90DF900895FC010396ED
:1023F000818392832FEF3FEF2383348385839683FA
:102400008783908710820895FC01108611860895B5
:10241000CF93DF939C01FB01DC011196CD91DC9100
:102420001297C283D3838C819D81848395838C8111
:102430009D81DC0112966D937C9313976C837D8351
:1024400020873187F90180818F5F8083DF91CF9171
:102450000895CF93DF93EB01488159814F3F2FEFD0
:10246000520721F4FC01A781B0850DC0DC01139651
:1024700001C0DF011296ED91FC911397208131810B
:1024800042175307B0F71296ED91FC911397EA8328
:10249000FB83C483D583AC83BD831296CD93DC9339
:1024A000139788879987FC0120812F5F2083DF9114
:1024B000CF910895CF93DF93FC01A085B185C281B0
:1024C000D381848195818C839D83C481D5818281D0
:1024D00093818A839B8311968D919C911297E81723
:1024E000F90731F48481958111968D939C9312970D
:1024F000108611868C9181508C938C91DF91CF91B5
:1025000008950F931F938B0171E1FC017083319744
:1025100062E26083319723E32083012E000C220BBB
:10252000330B319700833197108331972083319794
:102530001082319720E8208331971082319722E072
:102540002083319723E02083319724E02083319743
:1025500025E02083319726E02083319727E02083F0
:10256000319728E02083319729E02083319720E1BB
:10257000208331977083319722E12083319723E1C3
:102580002083319724E12083319725E120833197FF
:1025900026E12083319727E12083319728E12083AA
:1025A000319729E12083319720E22083319721E27E
:1025B000208331976083319723E2208331974083D2
:1025C00031975083319726E22083319727E2208389
:1025D000319728E22083319729E22083319720E345
:1025E0002083319721E3208387971F910F910895CE
:1025F000F894E0E7F0E083818A7F8383E0E0F8E00D
:1026000080E09AEF86A397A391E09683A0EAB0E0DA
:1026100012968C911297816012968C939083789485
:10262000A0912523B09126230D900DBE0D900EBED6
:10263000FF91EF91DF91CF91BF91AF919F918F91DA
:102640007F916F915F914F913F912F911F910F91CA
:10265000FF90EF90DF90CF90BF90AF909F908F90C2
:102660007F906F905F904F903F902F901F900F90B2
:102670000FBE0F90089581E008950F920FB6F89461
:102680000F921F9211242F923F924F925F926F925E
:102690007F928F929F92AF92BF92CF92DF92EF92F2
:1026A000FF920F931F932F933F934F935F936F93DB
:1026B0007F938F939F93AF93BF93CF93DF93EF93CA
:1026C000FF93A0912523B09126230DB60D920EB64F
:1026D0000D927ED6A0912523B09126230D900DBE9C
:1026E0000D900EBEFF91EF91DF91CF91BF91AF9111
:1026F0009F918F917F916F915F914F913F912F911A
:102700001F910F91FF90EF90DF90CF90BF90AF900F
:102710009F908F907F906F905F904F903F902F9001
:102720001F900F900FBE0F9008950F920FB6F89460
:102730000F921F9211242F923F924F925F926F92AD
:102740007F928F929F92AF92BF92CF92DF92EF9241
:10275000FF920F931F932F933F934F935F936F932A
:102760007F938F939F93AF93BF93CF93DF93EF9319
:10277000FF93A0912523B09126230DB60D920EB69E
:102780000D92E1D4811124D6A0912523B091262366
:102790000D900DBE0D900EBEFF91EF91DF91CF9188
:1027A000BF91AF919F918F917F916F915F914F9169
:1027B0003F912F911F910F91FF90EF90DF90CF905D
:1027C000BF90AF909F908F907F906F905F904F9051
:1027D0003F902F901F900F900FBE0F901895CF93A2
:1027E000DF93EC01A0D4CE010E94BD22EC0163D5A1
:1027F000CE01DF91CF910895CF93DF93009731F011
:10280000EC0191D4CE010E94552355D5DF91CF9193
:1028100008950FB6F8940F92FC01928D0F900FBEA1
:1028200081E0911180E008950F931F93CF93DF9380
:10283000EC01042F1A8D4C8D4423B9F1011116C0FF
:1028400050E08A819B810E94DE232C8D8A819B81AE
:10285000820F911D8A839B832C813D818217930770
:1028600020F1888199818A839B831FC050E08E81EB
:102870009F810E94DE238C8D90E091958195910936
:102880002E813F81280F391F2E833F834881598134
:102890002417350730F42C813D81820F931F8E83DE
:1028A0009F83023011F4111111501F5F1A8F80E0C5
:1028B000DF91CF911F910F910895FC01448D442326
:1028C000A9F050E026813781240F351F26833783F6
:1028D000848195812817390720F080819181868332
:1028E0009783CB01668177810C94DE230895EF9264
:1028F000FF920F931F93CF938C010FB6F8940F9212
:10290000FC01C68D1C169CF48189811106C00FC084
:10291000F8018189811105C00AC07801F1E1EF0E4B
:10292000F11CC701E4D5811160D6C15089F78FEF42
:10293000F801868F0F900FBE0FB6F8940F92C58DD9
:102940001C169CF48085811106C00FC0F80180859B
:10295000811105C00AC07801F8E0EF0EF11CC70133
:10296000C6D5811142D6C15089F78FEFF801858F06
:102970000F900FBECF911F910F91FF90EF90089590
:10298000CF93DF93EC010FB6F8940F92E881F981B1
:102990008B8D2C8D90E030E0829FA001839F500DA5
:1029A000929F500D11244E0F5F1F4C835D831A8E32
:1029B000EA83FB830197829FA001839F500D929F22
:1029C000500D1124CF01840F951F8E839F838FEFAD
:1029D0008D8F8E8F61110AC08885882369F0CE01A2
:1029E000089685D5882341F048DE06C0CE010896BA
:1029F000FDDCCE014196FADC0F900FBE81E0DF9145
:102A0000CF9108950F931F93CF93DF93082F162F25
:102A1000869FC00111244F96E2DEEC01009769F019
:102A2000111103C08883998303C04F9688839983CB
:102A30000B8F1C8F61E0CE01A3DFCE01DF91CF9120
:102A40001F910F910895AF92BF92CF92DF92EF92B4
:102A5000FF920F931F93CF93DF93CDB7DEB72597E8
:102A6000CDBFDEBF8C016B014C835D83A22EB12CE8
:102A70007C0188E0E80EF11C0FB6F8940F92F80183
:102A8000928D838D981718F0F2E0AF1215C04A2D81
:102A9000B601C801C9DEF8019189992339F0C8014E
:102AA000419625D5882321F0E8DD02C08111E5DDBE
:102AB0000F900FBE81E046C08C819D81892B21F44F
:102AC0000F900FBE80E03EC0B11005C0CE01019650
:102AD00056D5BB24B3940F900FBE25D30FB6F894F0
:102AE0000F92F801858D8F3F09F4158EF801868DC0
:102AF0008F3F09F4168E0F900FBEBE016C5F7F4FA3
:102B0000CE01019647D5811119C00FB6F8940F92E6
:102B1000F801928D0F900FBE838D98130BC06C81BE
:102B20007D81C701BBD4C801E2DEC5D38111A4CF2A
:102B3000A4DDA2CFC801DBDEBED39ECFC801D7DEA5
:102B4000BAD380E02596CDBFDEBFDF91CF911F9134
:102B50000F91FF90EF90DF90CF90BF90AF900895CE
:102B6000EF92FF920F931F93CF93DF938A01FC01A3
:102B7000528D338D531710F02230F1F4422F78012B
:102B8000EC011E8D8A8DCE014FDE1F3F79F48989BD
:102B90008823A1F0CE014196AAD4882389F0E114BC
:102BA000F10481F081E0F70180830DC0FF24F394EC
:102BB000F10EFE8E81E007C080E005C081E003C019
:102BC00081E001C081E0DF91CF911F910F91FF90D3
:102BD000EF900895AF92BF92CF92DF92EF92FF9263
:102BE0000F931F93CF93DF93CDB7DEB72597CDBF5C
:102BF000DEBF8C015B014C835D83E12C6C0181E1C4
:102C0000C80ED11C0FB6F8940F92F801F28CFF2079
:102C100091F0B501C80151DEFA94F801F28E808579
:102C2000882329F0C801089662D4811126DD0F900F
:102C30000FBE81E045C08C819D81892B21F40F90CE
:102C40000FBE80E03DC0E11005C0CE01019697D4D3
:102C5000EE24E3940F900FBE66D20FB6F8940F9255
:102C6000F801858D8F3F09F4158EF801868D8F3F11
:102C700009F4168E0F900FBEBE016C5F7F4FCE0120
:102C8000019688D4811113C0C801C3DD882359F08F
:102C90006C817D81C60102D4C80129DE0CD381116B
:102CA000B1CFEBDCAFCFC80122DE05D3ABCFC8017B
:102CB0001EDE01D3C801ADDD882309F4A3CF80E077
:102CC0002596CDBFDEBFDF91CF911F910F91FF9071
:102CD000EF90DF90CF90BF90AF900895DF92EF928A
:102CE000FF920F931F93CF93DF93CDB7DEB7259756
:102CF000CDBFDEBF8C016C837D83D12C7C0181E153
:102D0000E80EF11C0FB6F8940F92F801828D88231B
:102D100071F08150828F8085882329F0C801089640
:102D2000E6D38111AADC0F900FBE81E045C08C81F3
:102D30009D81892B21F40F900FBE80E03DC0D11002
:102D400005C0CE0101961BD4DD24D3940F900FBE95
:102D5000EAD10FB6F8940F92F801858D8F3F09F4F0
:102D6000158EF801868D8F3F09F4168E0F900FBED9
:102D7000BE016C5F7F4FCE0101960CD4811113C050
:102D8000C80147DD882359F06C817D81C70186D356
:102D9000C801ADDD90D28111B5CF6FDCB3CFC801D2
:102DA000A6DD89D2AFCFC801A2DD85D2C80131DD51
:102DB000882309F4A7CF80E02596CDBFDEBFDF9141
:102DC000CF911F910F91FF90EF90DF900895CF93D7
:102DD000DF93EC010FB6F8940F928D8D8F3F09F4BD
:102DE0001D8E8E8D8F3F09F41E8E0F900FBE8A8D23
:102DF000811103C0CE01419662D3CE0178DDDF910F
:102E0000CF910895E091E422F091E5228081811133
:102E100007C08FEF9FEF8093CD229093CE2208952D
:102E2000E091E422F091E5220580F681E02D068014
:102E3000F781E02D828193818093CD229093CE22E1
:102E40000895C8EFD2E288818230E8F316DCFBCF28
:102E50000F931F93CF93DF93EC010091D622109133
:102E6000D7228091252390912623029623DBC00F41
:102E7000D11FE0912523F0912623C283D383C0176D
:102E8000D10760F460912523709126238091E2227E
:102E90009091E3226E5F7F4FDCDA16C060912523AC
:102EA000709126238091E4229091E5226E5F7F4FFE
:102EB000D0DA8091CD229091CE22C817D90720F484
:102EC000C093CD22D093CE22DF91CF911F910F914D
:102ED00008954F925F926F927F928F929F92AF92DE
:102EE000BF92CF92DF92EF92FF920F931F93CF93F7
:102EF000DF934C016B015A012901CA0170DC3C01CE
:102F0000892B09F4D3C086E290E069DCEC01892BBF
:102F100059F06F8A788E81E0A81AB108A60CB71C08
:102F2000C114D10421F41FC0C30166DCBFC0D601A7
:102F30008C91898F8C918823A1F0AE01465E5F4F02
:102F4000F6013196B8E0CB0ED11CCF012191DA0108
:102F50002D93AD01DC018C91882319F0CE16DF068C
:102F6000A1F718A201C0198E053008F004E00E8BFD
:102F70006E01B2E0CB0ED11CC60146DACE010C9632
:102F800043DAC887D98785E090E0801B91098C8758
:102F90009D87CA8BDB8B19A21AA21BA21CA21DA2A1
:102FA000A201B401C501ADDA88839983E114F1046B
:102FB00019F0F701C083D1830FB6F8940F92809176
:102FC000D8228F5F8093D822809125239091262349
:102FD000892B69F5C0932523D09326238091D8228D
:102FE0008130A9F508EF12E20F2EF5E2EF2EF3E2A1
:102FF000FF2EF02DC801FAD9075F1F4F0E151F05D0
:10300000C9F78FEE92E2F2D986EE92E2EFD989ED1E
:1030100092E2ECD98FEE92E28093E4229093E52243
:1030200086EE92E28093E2229093E32210C0809198
:10303000D42281110CC0E0912523F091262396899A
:103040008E89891720F0C0932523D0932623809161
:10305000CF228F5F8093CF228E899091D5229817AF
:1030600010F48093D52290E09C01220F331F220F91
:10307000331F220F331F820F931FB60188509D4DBF
:10308000C7D90F900FBE8091D422882359F0E091C8
:103090002523F091262396898E89981728F4EDDA56
:1030A00081E005C081E003C081E001C08FEFDF91C6
:1030B000CF911F910F91FF90EF90DF90CF90BF9035
:1030C000AF909F908F907F906F905F904F900895FA
:1030D000EF92FF920F930F2EFBECEF2EF2E2FF2EFA
:1030E000F02D00E020E030E045E550E06DE070E2DA
:1030F00081E297E1EEDE813091F4E0D2813079F423
:10310000F8948FEF9FEF8093CD229093CE2281E0B1
:103110008093D4221092D6221092D72269DA0F918E
:10312000FF90EF9008958091CA228F5F8093CA220A
:1031300008950FB6F8940F928091D6229091D722DD
:103140000F900FBE0895DF92EF92FF920F931F939F
:10315000CF93DF938091CA2281119AC0E090D6224A
:10316000F090D7228FEFE81AF80AE092D622F09278
:10317000D722E114F104B1F48091E4229091E52288
:103180002091E2223091E3222093E4223093E52241
:103190008093E2229093E3228091D0228F5F8093EC
:1031A000D02230DE8091CD229091CE22E816F90611
:1031B00010F4D12C4FC0D12CE091E422F091E52203
:1031C0008081811107C08FEF9FEF8093CD22909374
:1031D000CE2240C0E091E422F091E5220580F68104
:1031E000E02DC681D7818A819B81E816F90628F4F3
:1031F0008093CD229093CE222DC08E010E5F1F4F63
:10320000C80158D98C899D89892B19F0CE010C965B
:1032100051D98E899091D522981710F48093D52298
:1032200090E09C01220F331F220F331F220F331F08
:10323000820F931FB80188509D4DEAD8E091252355
:10324000F09126239E898689981708F4B5CFDD244E
:10325000D394B2CFE0912523F0912623868990E084
:10326000FC01EE0FFF1FEE0FFF1FEE0FFF1F8E0F73
:103270009F1FFC01E850FD4D8081823010F0DD245D
:10328000D3948091D122882369F0DD24D3940AC09D
:103290008091D2229091D32201968093D222909352
:1032A000D322D12C8D2DDF91CF911F910F91FF90C3
:1032B000EF90DF900895DF92EF92FF920F931F93AC
:1032C000CF93DF930FB6F8940F928091CA2281506A
:1032D0008093CA228091CA2281115DC08091D82238
:1032E000811130C05BC0D7011596ED91FC91169706
:1032F000C681D781CE010C96DDD88E010E5F1F4F9F
:10330000C801D8D88E899091D522981710F480934F
:10331000D52290E09C01220F331F220F331F220F72
:10332000331F820F931FB80188509D4D71D8E091D3
:103330002523F09126239E898689981768F0D092DC
:10334000D1220AC0C0E0D0E00F2EF9EDEF2EF2E25C
:10335000FF2EF02DDD24D394F70180818111C3CF9E
:10336000CD2B09F04FDDC091D222D091D3222097EE
:1033700059F011E0E8DE81111093D1222197D1F7A5
:103380001092D2221092D3228091D122882329F048
:1033900074D981E003C080E001C080E00F900FBECF
:1033A000DF91CF911F910F91FF90EF90DF900895E3
:1033B000CF93DF93EC01892B39F0B5DE60E0CE01CD
:1033C00047DD79DF811101C058D9DF91CF91089590
:1033D0008091CA22882321F081E08093D122089530
:1033E0001092D1222091D522822F90E0FC01EE0F85
:1033F000FF1FEE0FFF1FEE0FFF1FE80FF91FE85032
:10340000FD4D3081311111C02150822F90E0FC011F
:10341000EE0FFF1FEE0FFF1FEE0FFF1FE80FF91F4C
:10342000E850FD4D3081332379F3AC01440F551F33
:10343000440F551F440F551F480F591FDA01A8505C
:10344000BD4D1196ED91FC9112970280F381E02D14
:103450001196ED93FC93129745505D4DE417F507D7
:1034600029F442815381FD0141835283FC01EE0F17
:10347000FF1FEE0FFF1FEE0FFF1F8E0F9F1FFC01A0
:10348000E850FD4D0180F281E02D86819781809387
:103490002523909326232093D5220895CF93DF935D
:1034A000EB016091252370912623645F7F4F0E947A
:1034B000291261E0CE01CCDCDF91CF9108950F930A
:1034C0001F93CF938B01C42F6091252370912623E6
:1034D000645F7F4F0E940812CC2311F00FEF1FEFA3
:1034E0006C2FC801B5DCCF911F910F9108950F93F8
:1034F0001F93CF93DF93DC011596ED91FC91169706
:10350000C681D7818E01045F1F4FC8010E945A12E5
:103510008091CA2281111CC00A501109C8010E9461
:103520005A128E899091D522981710F48093D52243
:1035300090E09C01220F331F220F331F220F331FF5
:10354000820F931FB80188509D4D0E94081205C03C
:10355000B80189ED92E20E940812E0912523F091D2
:1035600026239E898689891720F481E08093D122C1
:1035700001C080E0DF91CF911F910F9108952091BC
:10358000D022FC0120832091D6223091D7222183A2
:10359000328308950FB6F8940F922091D62230917D
:1035A000D722DC0111964D915C911297E091D022C7
:1035B000FC91FE1719F02417350798F4241B350BDE
:1035C000FB01408151812417350738F4421B530B0E
:1035D00040835183D4DF80E005C01082118281E0F6
:1035E00001C081E00F900FBE089581E08093D12249
:1035F00008958091D422882331F08091CA228823B3
:1036000021F080E0089581E0089582E00895FC01B2
:1036100062837383808791874617570790F0421B18
:10362000530B8485958548175907E0F4BF016E5FF9
:103630007F4F80912D2390912E230E94291280E0AC
:1036400008954217530718F46217730768F4BF010F
:103650006E5F7F4F80912F23909130230E9429121B
:1036600080E0089581E0089581E008950FB6F89410
:103670000F9280912B2390912C23892BE1F48AE3E4
:1036800093E20E94F61181E393E20E94F6118AE32D
:1036900093E280932F239093302381E393E28093EE
:1036A0002D2390932E2340E065E08AE0ABD98093F0
:1036B0002B2390932C230F900FBE0895EF92FF922F
:1036C0000F93D4DF80912B2390912C23892B89F0A9
:1036D0000F2EF9E2EF2EF3E2FF2EF02D03E020E0B3
:1036E00030E045E550E062E170E28EE29CE1F1DB22
:1036F00001C080E00F91FF90EF9008950F931F930A
:10370000CF93DF93CDB7DEB72597CDBFDEBFE09176
:103710002B23F0912C23309751F1D90169834A83EF
:103720005B838C839D836630D4F463DF823059F4ED
:1037300020E0A801BE016F5F7F4F80912B23909105
:103740002C2381D915C020E040E050E0BE016F5F1E
:103750007F4F80912B2390912C2375D909C020E0B5
:10376000AD01BE016F5F7F4FCF01FAD901C080E08C
:103770002596CDBFDEBFDF91CF911F910F910895A8
:10378000AF92BF92CF92DF92EF92FF920F931F936F
:10379000CF93DF936C01CDDC7C0180912723909146
:1037A0002823E816F90608F047C02FC00580F681E7
:1037B000E02DA080B180C681D7818E010E5F1F4FA2
:1037C000C8010E945A12E889F989CE0119958A899F
:1037D00082FF1BC08C859D858A0D9B1DA816B9068E
:1037E00060F48A839B83C887D987B80180912F238F
:1037F000909130230E94291208C000E010E020E0E0
:1038000030E0A50160E0CE0179DFE0912F23F09157
:10381000302380818111CACF80912D2390912E2356
:1038200080932F2390933023E0932D23F0932E2326
:1038300081E0F601808302C0F6011082E092272326
:10384000F0922823C701DF91CF911F910F91FF9034
:10385000EF90DF90CF90BF90AF900895CF93DF931C
:1038600000D000D0CDB7DEB7CE0101965C01E82EC6
:10387000FB2CE0912F23F09130238081882309F4E1
:10388000CFC00580F681E02DC080D1804CDCC50121
:1038900077DF8C018981811146C00C151D05A0F1CF
:1038A0000ADDE0912F23F09130230580F681E02D91
:1038B00086809780C40102960E945A12D4015296C3
:1038C0008C91529782FF15C01C966D917C911D972B
:1038D0006C0D7D1D9601A801C40199DE882361F05D
:1038E00000E010E020E030E0A60160E0C40106DF67
:1038F00003C08E7FF401828BD4015096ED91FC9130
:103900005197C401199580C040E0B601601B710B4E
:1039100080912B2390912C235ADACDDC811174C035
:103920000E943D1371C0C7DC6FC0898188230CF4ED
:103930006BC0CC80DD80F60182859385892B21F0D8
:10394000C60102960E945A12CE01069619DFAC01FA
:10395000E9810E2E000CFF0BEA30F10508F054C08F
:103960008827E250FF4F8F4F00C6D60152968C91A8
:103970005297816052968C9352972A813B811C9674
:103980006D917C911D97620F731FC60140DE8823E5
:10399000D9F1D6015096ED91FC915197C601199538
:1039A000F601828982FF30C04A815B8184859585DA
:1039B000480F591F00E010E020E030E060E0C60151
:1039C0009DDE22C0D60152968C9152978E7F5296E0
:1039D0008C931AC0F60182898160828B6A817B8117
:1039E00064877587640F751F9A01C60110DE0CC0CD
:1039F000D60152968C9181FD04C0C6010E94FC1331
:103A000003C08E7FF601828B40E050E06E2D7F2D4B
:103A100080912B2390912C23DDD8811186CF29CF43
:103A200082DBC501ADDE8C01898181117CCFE09103
:103A30002D23F0912E23808141E0811140E0C12CA3
:103A4000D12C63CF803A28E0920721F460E183E033
:103A500022C10895803B28E0920721F460E283E0D0
:103A60001AC10895803A29E0920721F460E184E0C8
:103A700012C10895803B29E0920721F460E284E0BE
:103A80000AC10895803A2AE0920721F460E185E0B6
:103A900002C10895803A9B4019F460E186E0FBC0C2
:103AA00008950F931F93CF93DF9300D000D0CDB72D
:103AB000DEB709831A832B833C834D831E82BE01AC
:103AC0006F5F7F4F0E94F50F2696CDBFDEBFDF915F
:103AD000CF911F910F910895FB018081E82FE6950A
:103AE000E695E69540E2E49FF0011124FA5F8770C5
:103AF00021E030E0A90102C0440F551F8A95E2F78A
:103B000046830895FB018081E82FE695E695E695CA
:103B100040E2E49FF0011124FA5F877021E030E079
:103B2000A90102C0440F551F8A95E2F74583089505
:103B3000809343239093442308952091432330910D
:103B4000442390E8899F200D311D1124F901E60FCF
:103B5000F11D40830895209143233091442390E840
:103B6000899F200D311D1124F901E60FF11D80817F
:103B70000895FF920F931F93CF93DF93E42FF0E00C
:103B8000E80FF11DE138F1051CF0C0E84C2F481B8F
:103B9000442309F450C0D62FD695D695D69570E01B
:103BA00098E0D99F601971091124E1E0F0E0DF018C
:103BB00002C0AA0FBB1F6A95E2F7FA2E213021F04E
:103BC000A8F0223039F137C0C42F1FEF180F012F92
:103BD0000C0F602F8D2F0E9486054F2D482B602FD4
:103BE0008D2F0E945A04C15091F725C0C42F1FEF9A
:103BF000180FFA2EF094012F0C0F602F8D2F0E94BA
:103C000086054F2D4823602F8D2F0E945A04C150E6
:103C100091F711C0C42F1FEF180F012F0C0F602F49
:103C20008D2F0E9486054F2D4827602F8D2F0E94D3
:103C30005A04C15091F7DF91CF911F910F91FF90DE
:103C40000895FF920F931F93CF93DF93222369F080
:103C5000F42E182FC22FDFEFD60F6D2F6C0F202FF1
:103C60004F2D812F86DFC150C1F7DF91CF911F917A
:103C70000F91FF9008958FEF8093700080937100F3
:103C8000809372008093730080937400809375001A
:103C9000809376000895CF93DF931F92CDB7DEB760
:103CA0009FB79983F8949981E82FF0E0E059FF4F8E
:103CB00060958081682360839FBF0F90DF91CF91D3
:103CC0000895CF93DF931F92CDB7DEB79FB7998347
:103CD000F8949981E82FF0E0E059FF4F8081682B3C
:103CE00060839FBF0F90DF91CF9108954091CA01EB
:103CF000E62FF72F8093CA0184914093CA0108955B
:103D0000AF92BF92CF92DF92EF92FF920F931F93E9
:103D1000CF93DF93C82FE62EB42E690100E0F9019E
:103D2000248143816B2D8E2D8CDFF60180818111E2
:103D30003AC08381282F269526952695877009F00D
:103D40002F5FF601A4808C2F90E03581831B9109B1
:103D50002A9D90011124829FA001839F500D929F64
:103D6000500D112401811281040F151FF601F380FB
:103D7000FF20A9F0D0E0C0E08E2D8C0F9C2F977013
:103D800021F4F801D4910F5F1F4FDD2324F441E0AB
:103D90006B2D0E944F05DD0FCF5FFC12EDCFB3946A
:103DA000AA94A110E3CFDF91CF911F910F91FF90C3
:103DB000EF90DF90CF90BF90AF900895DF92EF9299
:103DC000FF920F931F93CF93DF93D62E042F790189
:103DD000EC01162F89918A3031F4F70184818F5FCD
:103DE000080F1D2D09C08D3039F09701402F612F2C
:103DF00087DFF7018381180F88818111EBCFDF9175
:103E0000CF911F910F91FF90EF90DF900895CF9386
:103E1000DF93FC0120E030E0C62FD0E0DE01022E6F
:103E200002C0B595A7950A94E2F7A0FD508B2F5FCD
:103E30003F4F31962830310589F740FF0AC041FFD6
:103E400003C0FC01658302C0FC016683FC01618341
:103E500002C0FC016283DF91CF91089543E050E0FE
:103E600061E080EE97E0D3DF43E050E062E080EE77
:103E700097E0CDDF43E050E060E180E696E0C7DF09
:103E800041E050E460E280E696E0C1DF40E05BE1C3
:103E900060E280E896E0BBDF40E05BE162E080EA60
:103EA00096E0B5DF40E05BE164E080EA96E0AFDFFA
:103EB00043E050E062E080E696E0A9DF43E050E0B6
:103EC00068E080E696E0A3DF43E050E068E080EA47
:103ED00096E09DDF43E050E061E080E696E097DF0A
:103EE00043E050E068E080E096E091DF41E050E0A0
:103EF00060E180E896E08BDF43E050E062E080E63E
:103F000096E085DF43E050E068E080E696E07FDF02
:103F100040E050E064E080E696E079DF43E050E086
:103F200060E180EA96E073DF40E050E061E080E02D
:103F300096E06DDF40E050E064E080E096E067DF0F
:103F400040E050E062E080E296E061DF43E050E074
:103F500068E080E496E05BDF40E050E064E080E40D
:103F600096E055DF43E050E068E080E696E04FDF02
:103F700040E050E064E080E696E049DF43E050E056
:103F800068E080E896E043DF40E050E064E080E8ED
:103F900096E03DCF089504C06150710981099109EF
:103FA0006115710581059105B9F708958091472341
:103FB0009091482301968093472390934823089536
:103FC000CF93DF93CDB7DEB7C058D109CDBFDEBFE9
:103FD0000F2EFAE1EF2EF0E2FF2EF02D6894DD2493
:103FE000D7F88E010F5F1F4F6AE070E08091D523F4
:103FF0009091D6230E946E16813029F58091C923B5
:104000009091CA2301968093C9239093CA239F93CA
:104010008F93FF92EF921F92DF921F930F93D7D34C
:1040200026E030E248E060E0C801C8DE20E040E081
:1040300050E060E070E08091D5239091D6230E94FB
:104040002315CDBFDEBF82E390E0B2D9CDCFCF93B1
:10405000DF93CDB7DEB7C058D109CDBFDEBF00EAD0
:1040600016E00F2EFAE1CF2EF0E2DF2EF02D68944D
:10407000BB24B7F8CE0101967C01F801808581FD53
:104080002FC06AE070E08091D5239091D6230E94E2
:104090006E16813029F58091C9239091CA2301962B
:1040A0008093C9239093CA239F938F93DF92CF92DB
:1040B0001F92BF92FF92EF928AD326E030E248E04F
:1040C00060E0C7017BDE20E040E050E060E070E0AF
:1040D0008091D5239091D6230E942315CDBFDEBFBA
:1040E00085E090E065D9C9CFCF93DF93CDB7DEB738
:1040F000C058D109CDBFDEBF0F2EF0E4EF2EFAE09D
:10410000FF2EF02D00E216E0552453940F2EF7E217
:10411000AF2EF0E2BF2EF02D6894442447F8CE0174
:1041200001966C010F2EFCE26F2E77247394F02D14
:104130000F2EFCE23F2EF02D6AE070E08091D52337
:104140009091D6230E946E16813009F07AC0F70153
:104150008081807F81608083F80151825682558200
:1041600062E070E080E090E016DFF8015682528253
:1041700066E870E080E090E00EDF8090472390904A
:10418000482367E270E080E090E005DF7894F80172
:10419000808580FDFCCF2091472330914823F70193
:1041A0008081807F8083F894809147239091482379
:1041B0008D329140D0F060924523709246235F92F9
:1041C0003F92BF92AF921F924F92DF92CF92FFD257
:1041D00026E030E240E060E0C601F0DD10924723C7
:1041E00010924823CDBFDEBF21C028193909C9016B
:1041F00099230CF401969595879580934523909388
:1042000046239F938F93BF92AF921F924F92DF925C
:10421000CF92DDD226E030E240E060E0C601CEDDA4
:104220001092472310924823CDBFDEBF20E040E02C
:1042300050E060E070E08091D5239091D6230E94F9
:1042400023158BE490E0B4D877CFCF93DF93CDB72D
:10425000DEB7C158D109CDBFDEBFE0E4F6E081E0B2
:104260008183858300E012E0222423940F2EF9E35A
:10427000AF2EF0E2BF2EF02D6894332437F8CE0134
:1042800001966C010F2EF9E48F2EF3E29F2EF02D94
:104290000F2EF0E44F2EF6E05F2EF02D0F2EF9E4F6
:1042A0006F2EF0E27F2EF02D6AE070E08091D52332
:1042B0009091D6230E946E16813009F072C0C80119
:1042C0000E94C9058FB7CF57DF4F8883C158D040B0
:1042D000F894CF57DF4F9881C158D040F8018081C2
:1042E000846080839FBFF801868180FFFCCF268297
:1042F000E4A0F5A0C8010E94F505FF92EF92BF92DD
:10430000AF921F923F92DF92CF9261D226E030E2CD
:1043100040E160E0C60152DDCDBFDEBF99EDE91698
:104320009EE0F906B0F087E0E2E4F0E2D40101900B
:104330000D928A95E1F7F20126829F928F927F92E9
:104340006F921F923F92DF92CF9241D2CDBFDEBFDC
:1043500017C087E0EBE5F0E2D40101900D928A9559
:10436000E1F7F20125829F928F9282E690E29F937D
:104370008F931F923F92DF92CF9229D2CDBFDEBFA3
:1043800026E030E248E160E0C60118DD20E040E0D0
:1043900050E060E070E08091D5239091D6230E9498
:1043A000231582E390E004D87FCF80E49AE00E9456
:1043B0000B0F66ED7FE180E49AE00E948A0FE0E453
:1043C000FAE08181887F81838AE390E086A397A3C6
:1043D00086818C7F86838681836086838081807FCF
:1043E00080830895EF92FF920F93CF93DF93CDB721
:1043F000DEB72B97CDBFDEBF3EDC30DD87E080939C
:10440000A2000E940A0580E18093850626E030E242
:1044100040E060E085E790E2D1DC64E080E03BDCF6
:10442000E0E2F4E0818180FDFDCF66E176E185E0A8
:1044300090E0B1DDBADFBE016F5F7F4F80E092E0B8
:104440000E941508AE01485F5F4F61E080E092E096
:104450000E9499089A818B818F7880618B83892F44
:10446000817E8A831C8282E08D8381E0888780E25E
:104470008987BE016F5F7F4F80E092E00E94AB07AB
:10448000AE01485F5F4F61E080E092E00E944E081D
:10449000E12CF12C00E020E030E048EE53E068E34E
:1044A00070E284E790E20E94691702E020E030E0C9
:1044B00048EE53E068E370E285E291E20E946917FA
:1044C00003E020E030E048EE53E068E370E287E28A
:1044D00090E20E94691701E020E030E048EE53E0EE
:1044E00068E370E280EE9FE10E94691743E060E0BC
:1044F00081E00E9402158093D5239093D62320E07B
:1045000040E050E060E070E00E9423150E946818CF
:1045100080E090E02B96CDBFDEBFDF91CF910F9171
:10452000FF90EF900895A1E21A2EAA1BBB1BFD017C
:104530000DC0AA1FBB1FEE1FFF1FA217B307E40782
:10454000F50720F0A21BB30BE40BF50B661F771FDA
:10455000881F991F1A9469F76095709580959095BA
:104560009B01AC01BD01CF010895EE0FFF1F881F15
:104570008BBF0790F691E02D19940F931F93CF9363
:10458000DF938230910510F482E090E0E091D9232E
:10459000F091DA2320E030E0A0E0B0E0309719F1AC
:1045A000408151810281138148175907C8F084174F
:1045B000950769F4109731F012960C9312971396A1
:1045C0001C9327C00093D9231093DA2322C021150E
:1045D000310519F04217530718F49A01BD01EF0194
:1045E000DF01F801DBCF21153105F9F0281B390B6C
:1045F0002430310580F48A819B816115710521F099
:10460000FB018283938304C08093D9239093DA23A0
:10461000FE01329644C0FE01E20FF31F8193919395
:1046200022503109288339833AC02091D723309111
:10463000D823232B41F42091022030910320209392
:10464000D7233093D82320910020309101202115C9
:10465000310541F42DB73EB740910420509105201B
:10466000241B350BE091D723F091D823E217F307F1
:10467000A0F42E1B3F0B2817390778F0AC014E5FD2
:104680005F4F2417350748F04E0F5F1F4093D72325
:104690005093D8238193919302C0E0E0F0E0CF01E2
:1046A000DF91CF911F910F910895CF93DF930097E2
:1046B00009F481C0FC01329712821382A091D923A0
:1046C000B091DA23109781F420813181820F931FFA
:1046D0002091D7233091D8232817390751F5E0933B
:1046E000D723F093D82367C0ED0120E030E0CE1748
:1046F000DF0740F44A815B819E0141155105F1F0CD
:10470000EA01F5CFC283D38340815181840F951F85
:10471000C817D90759F488819981840F951F02968B
:10472000808391838A819B818283938321153105C4
:1047300029F4E093D923F093DA233DC0E901EA8319
:10474000FB8349915991C40FD51FEC17FD0761F404
:1047500080819181840F951F0296E9018883998356
:10476000828193818A839B83E0E0F0E012968D91B1
:104770009C911397009719F0FD01DC01F7CF8D9103
:104780009C9111979D012E5F3F4F820F931F2091A7
:10479000D7233091D8232817390769F4309729F4A3
:1047A0001092D9231092DA2302C012821382A093AE
:1047B000D723B093D823DF91CF910895FB01DC017B
:1047C00002C001900D9241505040D8F708950F93C8
:1047D0001F93CF93DF93CDB7DEB72E97CDBFDEBF4C
:1047E0000E891F89888D998D26E02C8309831A8371
:1047F00097FF02C080E090E801978D839E83AE0111
:10480000445E5F4F6A8D7B8DCE01019616D04D813F
:104810005E8157FD0AC02F813885421753070CF47B
:104820009A01F801E20FF31F10822E96CDBFDEBF72
:10483000DF91CF911F910F9108952F923F924F9248
:104840005F926F927F928F929F92AF92BF92CF9220
:10485000DF92EF92FF920F931F93CF93DF93CDB729
:10486000DEB72B97CDBFDEBF6C017B018A01FC0157
:1048700016821782838181FFBFC1CE0101963C0160
:10488000F6019381F70193FD859193FF81917F015B
:10489000882309F4ADC1853239F493FD859193FFE6
:1048A00081917F01853221F4B60190E0D3D1E8CF28
:1048B000912C212C312CFFE1F315D8F08B3279F0BB
:1048C00038F4803279F08332A1F4232D20611DC0A9
:1048D0008D3261F0803369F4232D216016C0832D61
:1048E0008260382EE32DE4603E2E2AC0F32DF8605E
:1048F0001DC037FC2DC020ED280F2A3040F08E322D
:10490000B9F436FC75C1232D2064322E19C036FE51
:1049100006C08AE0989E200D1124922E11C0EAE074
:104920002E9E200D1124222EF32DF0623F2E08C062
:104930008C3621F4832D8068382E02C0883641F4ED
:10494000F70193FD859193FF81917F018111B3CF91
:10495000982F9F7D9554933028F40C5F1F4F9FE351
:1049600099830DC0833631F0833771F0833509F0B8
:1049700055C020C0F801808189830E5F1F4F8824B5
:104980008394912C530112C02801F2E04F0E511C68
:10499000F801A080B18036FE03C0692D70E002C02E
:1049A0006FEF7FEFC5014BD14C018201F32DFF77F3
:1049B0003F2E15C0280122E0420E511CF801A080B4
:1049C000B18036FE03C0692D70E002C06FEF7FEF4B
:1049D000C5012AD14C01F32DF0683F2E820133FC32
:1049E00019C0822D90E088169906A0F4B60180E2E5
:1049F00090E030D12A94F5CFF50137FC859137FE50
:104A000081915F01B60190E025D121102A9421E027
:104A1000821A91088114910479F7E1C0843611F06B
:104A2000893639F5F80137FE07C0608171818281CE
:104A300093810C5F1F4F08C060817181072E000CAD
:104A4000880B990B0E5F1F4FF32DFF763F2E97FFBC
:104A500009C090958095709561957F4F8F4F9F4FBE
:104A6000F0683F2E2AE030E0A30130D1882E86186E
:104A700044C0853731F4232D2F7EB22E2AE030E05A
:104A800025C0932D997FB92E8F36C1F018F4883543
:104A900079F0AEC0803719F0883721F0A9C0E92F2E
:104AA000E061BE2EB4FE0DC0FB2DF460BF2E09C028
:104AB00034FE0AC0292F2660B22E06C028E030E05E
:104AC00005C020E130E002C020E132E0F801B7FE8D
:104AD00007C060817181828193810C5F1F4F06C086
:104AE0006081718180E090E00E5F1F4FA301EED0E6
:104AF000882E8618FB2DFF773F2E36FE0DC0232D06
:104B00002E7FA22E891458F434FE0BC032FC09C04B
:104B1000832D8E7EA82E05C0B82CA32C03C0B82CE4
:104B200001C0B92CA4FE0FC0FE01E80DF11D80816B
:104B3000803321F49A2D997EA92E09C0A2FE06C0C9
:104B4000B394B39404C08A2D867809F0B394A3FC7F
:104B500010C0A0FE06C0B21480F4280C922C9B1842
:104B60000DC0B21458F4B60180E290E073D0B39453
:104B7000F8CFB21418F42B1802C0982C212CA4FEE4
:104B80000FC0B60180E390E065D0A2FE16C0A1FC84
:104B900003C088E790E002C088E590E0B6010CC051
:104BA0008A2D867851F0A1FE02C08BE201C080E21E
:104BB000A7FC8DE2B60190E04DD0891430F4B60127
:104BC00080E390E047D09A94F8CF8A94F301E80DFF
:104BD000F11D8081B60190E03DD08110F6CF2220FA
:104BE00009F44ECEB60180E290E034D02A94F7CF9B
:104BF000F6018681978102C08FEF9FEF2B96CDBF84
:104C0000DEBFDF91CF911F910F91FF90EF90DF906A
:104C1000CF90BF90AF909F908F907F906F905F905C
:104C20004F903F902F900895FC0105906150704087
:104C30000110D8F7809590958E0F9F1F0895FC0165
:104C40006150704001900110D8F7809590958E0FBB
:104C50009F1F08950F931F93CF93DF93FB01238131
:104C600021FD03C08FEF9FEF2CC022FF16C04681AD
:104C70005781248135814217530744F4A081B181C3
:104C80009D012F5F3F4F208331838C932681378195
:104C90002F5F3F4F2683378314C08B01EC01FB014C
:104CA0000084F185E02D1995892BE1F6D80116963F
:104CB0008D919C911797019616968D939C931797BB
:104CC000CE01DF91CF911F910F910895FA01AA278C
:104CD000283051F1203181F1E8946F936E7F6E5F3F
:104CE0007F4F8F4F9F4FAF4FB1E03ED0B4E03CD0ED
:104CF000670F781F891F9A1FA11D680F791F8A1FD0
:104D0000911DA11D6A0F711D811D911DA11D20D036
:104D100009F468943F912AE0269F11243019305DF0
:104D20003193DEF6CF010895462F4770405D4193E1
:104D3000B3E00FD0C9F7F6CF462F4F70405D4A332E
:104D400018F0495D31FD4052419302D0A9F7EACFF6
:104D5000B4E0A6959795879577956795BA95C9F725
:104D600000976105710508959B01AC010A2E069418
:104D70005795479537952795BA95C9F7620F731FD1
:0C4D8000841F951FA01D0895F894FFCF1C
:104D8C000000DB2320000010020607207D49444C64
:104D9C004500546D722053766300436F756E7465D5
:104DAC0072203A2025640050616E6A616E673A2069
:104DBC00256420636D20202000536F696C3A2025F8
:104DCC0075004B6572696E670054616E61682025D1
:104DDC00732C2050756D70204F4E004C656D6261C8
:104DEC00620054616E61682025732C2050756D70C3
:104DFC00204F46460052544F53207631302E322EDF
:024E0C00310073
:00000001FF
